Component: ARM Compiler 6.16 Tool: armlink [5dfeaa00]

==============================================================================

Section Cross References

    main.o(.text.main) refers to zf_common_clock.o(.text.clock_init) for clock_init
    main.o(.text.main) refers to main.o(.bss.uart_data_fifo) for uart_data_fifo
    main.o(.text.main) refers to main.o(.bss.uart_get_data) for uart_get_data
    main.o(.text.main) refers to zf_common_fifo.o(.text.fifo_init) for fifo_init
    main.o(.text.main) refers to zf_driver_encoder.o(.text.encoder_quad_init) for encoder_quad_init
    main.o(.text.main) refers to zf_device_tft180.o(.text.tft180_init) for tft180_init
    main.o(.text.main) refers to zf_driver_uart.o(.text.uart_init) for uart_init
    main.o(.text.main) refers to zf_driver_uart.o(.text.uart_rx_interrupt) for uart_rx_interrupt
    main.o(.text.main) refers to zf_common_interrupt.o(.text.interrupt_set_priority) for interrupt_set_priority
    main.o(.text.main) refers to main.o(.rodata.str1.1) for .L.str
    main.o(.text.main) refers to zf_driver_uart.o(.text.uart_write_string) for uart_write_string
    main.o(.text.main) refers to zf_driver_uart.o(.text.uart_write_byte) for uart_write_byte
    main.o(.text.main) refers to zf_common_fifo.o(.text.fifo_used) for fifo_used
    main.o(.text.main) refers to main.o(.bss.fifo_data_count) for fifo_data_count
    main.o(.text.main) refers to main.o(.bss.fifo_get_data) for fifo_get_data
    main.o(.text.main) refers to zf_common_fifo.o(.text.fifo_read_buffer) for fifo_read_buffer
    main.o(.text.main) refers to strstr.o(.text) for strstr
    main.o(.text.main) refers to sscanf.o(.text) for sscanf
==============================================================================

Removing Unused input sections from the image.

    Removing main.o(.text), (0 bytes).
    Removing main.o(.ARM.exidx.text.main), (8 bytes).
    Removing main.o(.ARM.exidx.text.uart_rx_interrupt_handler), (8 bytes).
    Removing main.o(.ARM.use_no_argv), (4 bytes).
    Removing isr.o(.text), (0 bytes).
    Removing isr.o(.ARM.exidx.text.TIM1_UP_IRQHandler), (8 bytes).
    Removing isr.o(.ARM.exidx.text.TIM2_IRQHandler), (8 bytes).
    Removing isr.o(.ARM.exidx.text.TIM3_IRQHandler), (8 bytes).
    Removing isr.o(.ARM.exidx.text.TIM4_IRQHandler), (8 bytes).
    Removing isr.o(.ARM.exidx.text.TIM5_IRQHandler), (8 bytes).
    Removing isr.o(.ARM.exidx.text.TIM6_IRQHandler), (8 bytes).
    Removing isr.o(.ARM.exidx.text.TIM7_IRQHandler), (8 bytes).
    Removing isr.o(.ARM.exidx.text.TIM8_UP_IRQHandler), (8 bytes).
    Removing isr.o(.ARM.exidx.text.UART1_IRQHandler), (8 bytes).
    Removing isr.o(.ARM.exidx.text.UART2_IRQHandler), (8 bytes).
    Removing isr.o(.ARM.exidx.text.UART3_IRQHandler), (8 bytes).
    Removing isr.o(.ARM.exidx.text.UART4_IRQHandler), (8 bytes).
    Removing isr.o(.ARM.exidx.text.UART5_IRQHandler), (8 bytes).
==============================================================================

Image Symbol Table

    Local Symbols

    Symbol Name                              Value     Ov Type        Size  Object(Section)

    ../clib/division.s                       0x00000000   Number         0  aeabi_sdiv.o ABSOLUTE
    ../clib/microlib/ctype/ctype.c           0x00000000   Number         0  isspace_c.o ABSOLUTE
    ../clib/microlib/ctype/ctype.c           0x00000000   Number         0  ctype_c.o ABSOLUTE
    ../clib/microlib/division.c              0x00000000   Number         0  uidiv.o ABSOLUTE
    ../clib/microlib/division.c              0x00000000   Number         0  uldiv.o ABSOLUTE
    ../clib/microlib/errno.c                 0x00000000   Number         0  errno.o ABSOLUTE
    ../clib/microlib/init/entry.s            0x00000000   Number         0  entry.o ABSOLUTE
    ../clib/microlib/init/entry.s            0x00000000   Number         0  entry4.o ABSOLUTE
    ../clib/microlib/init/entry.s            0x00000000   Number         0  entry5.o ABSOLUTE
    ../clib/microlib/init/entry.s            0x00000000   Number         0  entry7a.o ABSOLUTE
    ../clib/microlib/init/entry.s            0x00000000   Number         0  entry7b.o ABSOLUTE
    ../clib/microlib/init/entry.s            0x00000000   Number         0  entry8a.o ABSOLUTE
    ../clib/microlib/init/entry.s            0x00000000   Number         0  entry8b.o ABSOLUTE
    ../clib/microlib/init/entry.s            0x00000000   Number         0  entry9a.o ABSOLUTE
    ../clib/microlib/init/entry.s            0x00000000   Number         0  entry9b.o ABSOLUTE
    ../clib/microlib/init/entry.s            0x00000000   Number         0  entry10a.o ABSOLUTE
    ../clib/microlib/init/entry.s            0x00000000   Number         0  entry10b.o ABSOLUTE
    ../clib/microlib/init/entry.s            0x00000000   Number         0  entry11a.o ABSOLUTE
    ../clib/microlib/init/entry.s            0x00000000   Number         0  entry11b.o ABSOLUTE
    ../clib/microlib/longlong.c              0x00000000   Number         0  llshl.o ABSOLUTE
    ../clib/microlib/longlong.c              0x00000000   Number         0  llushr.o ABSOLUTE
    ../clib/microlib/longlong.c              0x00000000   Number         0  llsshr.o ABSOLUTE
    ../clib/microlib/printf/printf.c         0x00000000   Number         0  printfa.o ABSOLUTE
    ../clib/microlib/stdio/streams.c         0x00000000   Number         0  stdout.o ABSOLUTE
    ../clib/microlib/string/memcmp.c         0x00000000   Number         0  memcmp.o ABSOLUTE
    ../clib/microlib/string/memcpy.c         0x00000000   Number         0  memcpya.o ABSOLUTE
    ../clib/microlib/string/memcpy.c         0x00000000   Number         0  memcpyb.o ABSOLUTE
    ../clib/microlib/string/memset.c         0x00000000   Number         0  memseta.o ABSOLUTE
    ../clib/microlib/string/strchr.c         0x00000000   Number         0  strchr.o ABSOLUTE
    ../clib/microlib/string/strlen.c         0x00000000   Number         0  strlen.o ABSOLUTE
    ../clib/microlib/string/strncmp.c        0x00000000   Number         0  strncmp.o ABSOLUTE
    ../clib/microlib/string/strncpy.c        0x00000000   Number         0  strncpy.o ABSOLUTE
    ../clib/microlib/string/strrchr.c        0x00000000   Number         0  strrchr.o ABSOLUTE
    ../clib/microlib/string/strstr.c         0x00000000   Number         0  strstr.o ABSOLUTE
    ../clib/microlib/stubs.s                 0x00000000   Number         0  iusefp.o ABSOLUTE
    ../clib/scanf.c                          0x00000000   Number         0  sscanf.o ABSOLUTE
    ../clib/scanf.c                          0x00000000   Number         0  _scanf_longlong.o ABSOLUTE
    ../clib/scanf.c                          0x00000000   Number         0  _scanf_int.o ABSOLUTE
    ../clib/scanf.c                          0x00000000   Number         0  _scanf_str.o ABSOLUTE
    ../clib/scanf.c                          0x00000000   Number         0  scanf_fp.o ABSOLUTE
    ../clib/scanf.c                          0x00000000   Number         0  scanf_char.o ABSOLUTE
    ../clib/scanf.c                          0x00000000   Number         0  _sgetc.o ABSOLUTE
    ../clib/scanf.c                          0x00000000   Number         0  _chval.o ABSOLUTE
    ../clib/scanf.c                          0x00000000   Number         0  _scanf.o ABSOLUTE
    ../fplib/microlib/d2f.c                  0x00000000   Number         0  d2f.o ABSOLUTE
    ../fplib/microlib/f2d.c                  0x00000000   Number         0  f2d.o ABSOLUTE
    ../fplib/microlib/fpadd.c                0x00000000   Number         0  fadd.o ABSOLUTE
    ../fplib/microlib/fpadd.c                0x00000000   Number         0  dadd.o ABSOLUTE
    ../fplib/microlib/fpcmp.c                0x00000000   Number         0  fcmpge.o ABSOLUTE
    ../fplib/microlib/fpcmp.c                0x00000000   Number         0  dcmple.o ABSOLUTE
    ../fplib/microlib/fpcmp.c                0x00000000   Number         0  dcmplt.o ABSOLUTE
    ../fplib/microlib/fpcmp.c                0x00000000   Number         0  dcmpge.o ABSOLUTE
    ../fplib/microlib/fpcmp.c                0x00000000   Number         0  dcmpeq.o ABSOLUTE
    ../fplib/microlib/fpdiv.c                0x00000000   Number         0  fdiv.o ABSOLUTE
    ../fplib/microlib/fpdiv.c                0x00000000   Number         0  ddiv.o ABSOLUTE
    ../fplib/microlib/fpepilogue.c           0x00000000   Number         0  fepilogue.o ABSOLUTE
    ../fplib/microlib/fpepilogue.c           0x00000000   Number         0  depilogue.o ABSOLUTE
    ../fplib/microlib/fpfix.c                0x00000000   Number         0  ffixi.o ABSOLUTE
    ../fplib/microlib/fpfix.c                0x00000000   Number         0  dfixi.o ABSOLUTE
    ../fplib/microlib/fpfix.c                0x00000000   Number         0  dfixul.o ABSOLUTE
    ../fplib/microlib/fpflt.c                0x00000000   Number         0  fflti.o ABSOLUTE
    ../fplib/microlib/fpflt.c                0x00000000   Number         0  ffltui.o ABSOLUTE
    ../fplib/microlib/fpflt.c                0x00000000   Number         0  dflti.o ABSOLUTE
    ../fplib/microlib/fpflt.c                0x00000000   Number         0  dfltui.o ABSOLUTE
    ../fplib/microlib/fpflt.c                0x00000000   Number         0  dfltul.o ABSOLUTE
    ../fplib/microlib/fpmul.c                0x00000000   Number         0  fmul.o ABSOLUTE
    ../fplib/microlib/fpmul.c                0x00000000   Number         0  dmul.o ABSOLUTE
    ../fplib/microlib/fpscalb.c              0x00000000   Number         0  dscalb.o ABSOLUTE
    ../fplib/microlib/fpsqrt.c               0x00000000   Number         0  dsqrt.o ABSOLUTE
    ../mathlib/asin.c                        0x00000000   Number         0  asin.o ABSOLUTE
    ../mathlib/atan.c                        0x00000000   Number         0  atan.o ABSOLUTE
    ../mathlib/atan2.c                       0x00000000   Number         0  atan2.o ABSOLUTE
    ../mathlib/cos.c                         0x00000000   Number         0  cos.o ABSOLUTE
    ../mathlib/cos_i.c                       0x00000000   Number         0  cos_i.o ABSOLUTE
    ../mathlib/dunder.c                      0x00000000   Number         0  dunder.o ABSOLUTE
    ../mathlib/fpclassify.c                  0x00000000   Number         0  fpclassify.o ABSOLUTE
    ../mathlib/poly.c                        0x00000000   Number         0  poly.o ABSOLUTE
    ../mathlib/pow.c                         0x00000000   Number         0  pow.o ABSOLUTE
    ../mathlib/qnan.c                        0x00000000   Number         0  qnan.o ABSOLUTE
    ../mathlib/rred.c                        0x00000000   Number         0  rred.o ABSOLUTE
    ../mathlib/sin.c                         0x00000000   Number         0  sin.o ABSOLUTE
    ../mathlib/sin_i.c                       0x00000000   Number         0  sin_i.o ABSOLUTE
    ../mathlib/sqrt.c                        0x00000000   Number         0  sqrt.o ABSOLUTE
    ..\..\libraries\sdk\mdk\startup_mm32f3277g.s 0x00000000   Number         0  startup_mm32f3277g.o ABSOLUTE
    cdcmple.s                                0x00000000   Number         0  cdcmple.o ABSOLUTE
    cdrcmple.s                               0x00000000   Number         0  cdrcmple.o ABSOLUTE
    dc.s                                     0x00000000   Number         0  dc.o ABSOLUTE
    diskio.c                                 0x00000000   Number         0  diskio.o ABSOLUTE
    ff.c                                     0x00000000   Number         0  ff.o ABSOLUTE
    ffsystem.c                               0x00000000   Number         0  ffsystem.o ABSOLUTE
    ffunicode.c                              0x00000000   Number         0  ffunicode.o ABSOLUTE
    hal_adc.c                                0x00000000   Number         0  hal_adc.o ABSOLUTE
    hal_comp.c                               0x00000000   Number         0  hal_comp.o ABSOLUTE
    hal_dac.c                                0x00000000   Number         0  hal_dac.o ABSOLUTE
    hal_dma.c                                0x00000000   Number         0  hal_dma.o ABSOLUTE
    hal_exti.c                               0x00000000   Number         0  hal_exti.o ABSOLUTE
    hal_fsmc.c                               0x00000000   Number         0  hal_fsmc.o ABSOLUTE
    hal_gpio.c                               0x00000000   Number         0  hal_gpio.o ABSOLUTE
    hal_i2c.c                                0x00000000   Number         0  hal_i2c.o ABSOLUTE
    hal_iwdg.c                               0x00000000   Number         0  hal_iwdg.o ABSOLUTE
    hal_rcc.c                                0x00000000   Number         0  hal_rcc.o ABSOLUTE
    hal_rtc.c                                0x00000000   Number         0  hal_rtc.o ABSOLUTE
    hal_sdio.c                               0x00000000   Number         0  hal_sdio.o ABSOLUTE
    hal_spi.c                                0x00000000   Number         0  hal_spi.o ABSOLUTE
    hal_syscfg.c                             0x00000000   Number         0  hal_syscfg.o ABSOLUTE
    hal_tim_16b.c                            0x00000000   Number         0  hal_tim_16b.o ABSOLUTE
    hal_tim_32b.c                            0x00000000   Number         0  hal_tim_32b.o ABSOLUTE
    hal_tim_adv.c                            0x00000000   Number         0  hal_tim_adv.o ABSOLUTE
    hal_tim_basic.c                          0x00000000   Number         0  hal_tim_basic.o ABSOLUTE
    hal_uart.c                               0x00000000   Number         0  hal_uart.o ABSOLUTE
    hal_usb.c                                0x00000000   Number         0  hal_usb.o ABSOLUTE
    hal_wwdg.c                               0x00000000   Number         0  hal_wwdg.o ABSOLUTE
    handlers.s                               0x00000000   Number         0  handlers.o ABSOLUTE
    init.s                                   0x00000000   Number         0  init.o ABSOLUTE
    isr.c                                    0x00000000   Number         0  isr.o ABSOLUTE
    main.c                                   0x00000000   Number         0  main.o ABSOLUTE
    system_mm32f3277g.c                      0x00000000   Number         0  system_mm32f3277g.o ABSOLUTE
    zf_common_clock.c                        0x00000000   Number         0  zf_common_clock.o ABSOLUTE
    zf_common_debug.c                        0x00000000   Number         0  zf_common_debug.o ABSOLUTE
    zf_common_fifo.c                         0x00000000   Number         0  zf_common_fifo.o ABSOLUTE
    zf_common_font.c                         0x00000000   Number         0  zf_common_font.o ABSOLUTE
    zf_common_function.c                     0x00000000   Number         0  zf_common_function.o ABSOLUTE
    zf_common_interrupt.c                    0x00000000   Number         0  zf_common_interrupt.o ABSOLUTE
    zf_device_absolute_encoder.c             0x00000000   Number         0  zf_device_absolute_encoder.o ABSOLUTE
    zf_device_bluetooth_ch9141.c             0x00000000   Number         0  zf_device_bluetooth_ch9141.o ABSOLUTE
    zf_device_camera.c                       0x00000000   Number         0  zf_device_camera.o ABSOLUTE
    zf_device_config.c                       0x00000000   Number         0  zf_device_config.o ABSOLUTE
    zf_device_dl1a.c                         0x00000000   Number         0  zf_device_dl1a.o ABSOLUTE
    zf_device_dm1xa.c                        0x00000000   Number         0  zf_device_dm1xa.o ABSOLUTE
    zf_device_gps_tau1201.c                  0x00000000   Number         0  zf_device_gps_tau1201.o ABSOLUTE
    zf_device_icm20602.c                     0x00000000   Number         0  zf_device_icm20602.o ABSOLUTE
    zf_device_imu660ra.c                     0x00000000   Number         0  zf_device_imu660ra.o ABSOLUTE
    zf_device_imu963ra.c                     0x00000000   Number         0  zf_device_imu963ra.o ABSOLUTE
    zf_device_ips114.c                       0x00000000   Number         0  zf_device_ips114.o ABSOLUTE
    zf_device_ips200.c                       0x00000000   Number         0  zf_device_ips200.o ABSOLUTE
    zf_device_key.c                          0x00000000   Number         0  zf_device_key.o ABSOLUTE
    zf_device_mpu6050.c                      0x00000000   Number         0  zf_device_mpu6050.o ABSOLUTE
    zf_device_mt9v03x.c                      0x00000000   Number         0  zf_device_mt9v03x.o ABSOLUTE
    zf_device_oled.c                         0x00000000   Number         0  zf_device_oled.o ABSOLUTE
    zf_device_ov7725.c                       0x00000000   Number         0  zf_device_ov7725.o ABSOLUTE
    zf_device_scc8660.c                      0x00000000   Number         0  zf_device_scc8660.o ABSOLUTE
    zf_device_sdcard.c                       0x00000000   Number         0  zf_device_sdcard.o ABSOLUTE
    zf_device_tft180.c                       0x00000000   Number         0  zf_device_tft180.o ABSOLUTE
    zf_device_tsl1401.c                      0x00000000   Number         0  zf_device_tsl1401.o ABSOLUTE
    zf_device_type.c                         0x00000000   Number         0  zf_device_type.o ABSOLUTE
    zf_device_virtual_oscilloscope.c         0x00000000   Number         0  zf_device_virtual_oscilloscope.o ABSOLUTE
    zf_device_wifi_uart.c                    0x00000000   Number         0  zf_device_wifi_uart.o ABSOLUTE
    zf_device_wireless_uart.c                0x00000000   Number         0  zf_device_wireless_uart.o ABSOLUTE
    zf_driver_adc.c                          0x00000000   Number         0  zf_driver_adc.o ABSOLUTE
    zf_driver_dac.c                          0x00000000   Number         0  zf_driver_dac.o ABSOLUTE
    zf_driver_delay.c                        0x00000000   Number         0  zf_driver_delay.o ABSOLUTE
    zf_driver_dma.c                          0x00000000   Number         0  zf_driver_dma.o ABSOLUTE
    zf_driver_encoder.c                      0x00000000   Number         0  zf_driver_encoder.o ABSOLUTE
    zf_driver_exti.c                         0x00000000   Number         0  zf_driver_exti.o ABSOLUTE
    zf_driver_flash.c                        0x00000000   Number         0  zf_driver_flash.o ABSOLUTE
    zf_driver_fsmc.c                         0x00000000   Number         0  zf_driver_fsmc.o ABSOLUTE
    zf_driver_gpio.c                         0x00000000   Number         0  zf_driver_gpio.o ABSOLUTE
    zf_driver_iic.c                          0x00000000   Number         0  zf_driver_iic.o ABSOLUTE
    zf_driver_pit.c                          0x00000000   Number         0  zf_driver_pit.o ABSOLUTE
    zf_driver_pwm.c                          0x00000000   Number         0  zf_driver_pwm.o ABSOLUTE
    zf_driver_sdio.c                         0x00000000   Number         0  zf_driver_sdio.o ABSOLUTE
    zf_driver_soft_iic.c                     0x00000000   Number         0  zf_driver_soft_iic.o ABSOLUTE
    zf_driver_soft_spi.c                     0x00000000   Number         0  zf_driver_soft_spi.o ABSOLUTE
    zf_driver_spi.c                          0x00000000   Number         0  zf_driver_spi.o ABSOLUTE
    zf_driver_timer.c                        0x00000000   Number         0  zf_driver_timer.o ABSOLUTE
    zf_driver_uart.c                         0x00000000   Number         0  zf_driver_uart.o ABSOLUTE
    RESET                                    0x08000000   Section      400  startup_mm32f3277g.o(RESET)
    .ARM.Collect$$$$00000000                 0x08000400   Section        0  entry.o(.ARM.Collect$$$$00000000)
    .ARM.Collect$$$$00000003                 0x08000400   Section        4  entry4.o(.ARM.Collect$$$$00000003)
    .ARM.Collect$$$$00000004                 0x08000404   Section        4  entry5.o(.ARM.Collect$$$$00000004)
    .ARM.Collect$$$$00000008                 0x08000408   Section        0  entry7b.o(.ARM.Collect$$$$00000008)
    .ARM.Collect$$$$0000000A                 0x08000408   Section        0  entry8b.o(.ARM.Collect$$$$0000000A)
    .ARM.Collect$$$$0000000B                 0x08000408   Section        8  entry9a.o(.ARM.Collect$$$$0000000B)
    __lit__00000000                          0x08000410   Data           4  entry4.o(.ARM.Collect$$$$00002714)
    .ARM.Collect$$$$0000000D                 0x08000410   Section        0  entry10a.o(.ARM.Collect$$$$0000000D)
    .ARM.Collect$$$$0000000F                 0x08000410   Section        0  entry11a.o(.ARM.Collect$$$$0000000F)
    .ARM.Collect$$$$00002714                 0x08000410   Section        4  entry4.o(.ARM.Collect$$$$00002714)
    .text                                    0x08000414   Section       36  startup_mm32f3277g.o(.text)
    .text                                    0x08000438   Section        0  memcpya.o(.text)
    .text                                    0x0800045c   Section        0  memseta.o(.text)
    .text                                    0x08000480   Section        0  strstr.o(.text)
    .text                                    0x080004a4   Section        0  strlen.o(.text)
    .text                                    0x080004b2   Section        0  strncmp.o(.text)
    .text                                    0x080004d0   Section        0  sscanf.o(.text)
    .text                                    0x08000508   Section        0  dadd.o(.text)
    .text                                    0x08000656   Section        0  dmul.o(.text)
    .text                                    0x0800073a   Section        0  ddiv.o(.text)
    .text                                    0x08000818   Section        0  ffltui.o(.text)
    .text                                    0x08000822   Section        0  dfixi.o(.text)
    .text                                    0x08000860   Section        0  f2d.o(.text)
    .text                                    0x08000886   Section        0  d2f.o(.text)
    .text                                    0x080008be   Section        0  uidiv.o(.text)
    .text                                    0x080008ea   Section        0  uldiv.o(.text)
    .text                                    0x0800094c   Section        0  llshl.o(.text)
    .text                                    0x0800096a   Section        0  llushr.o(.text)
    .text                                    0x0800098a   Section        0  llsshr.o(.text)
    .text                                    0x080009ae   Section        0  _scanf_longlong.o(.text)
    .text                                    0x08000b04   Section        0  _scanf_int.o(.text)
    .text                                    0x08000c50   Section        0  _scanf_str.o(.text)
    _fp_value                                0x08000d31   Thumb Code   296  scanf_fp.o(.text)
    .text                                    0x08000d30   Section        0  scanf_fp.o(.text)
    _scanf_char_input                        0x08001091   Thumb Code    12  scanf_char.o(.text)
    .text                                    0x08001090   Section        0  scanf_char.o(.text)
    .text                                    0x080010b8   Section        0  _sgetc.o(.text)
    .text                                    0x080010f8   Section        0  iusefp.o(.text)
    .text                                    0x080010f8   Section        0  fepilogue.o(.text)
    .text                                    0x08001166   Section        0  depilogue.o(.text)
    .text                                    0x08001220   Section        0  dfixul.o(.text)
    .text                                    0x08001250   Section       48  cdrcmple.o(.text)
    .text                                    0x08001280   Section       36  init.o(.text)
    .text                                    0x080012a4   Section        0  isspace_c.o(.text)
    .text                                    0x080012ae   Section        0  _chval.o(.text)
    .text                                    0x080012cc   Section        0  _scanf.o(.text)
    .text                                    0x080015f8   Section        0  dfltul.o(.text)
    .text                                    0x08001610   Section        0  ctype_c.o(.text)
    [Anonymous Symbol]                       0x08001638   Section        0  isr.o(.text.DMA1_Channel1_IRQHandler)
    [Anonymous Symbol]                       0x08001658   Section        0  isr.o(.text.DMA1_Channel2_IRQHandler)
    [Anonymous Symbol]                       0x0800167c   Section        0  isr.o(.text.DMA1_Channel3_IRQHandler)
    [Anonymous Symbol]                       0x080016a0   Section        0  isr.o(.text.DMA1_Channel4_IRQHandler)
    [Anonymous Symbol]                       0x080016d0   Section        0  isr.o(.text.DMA1_Channel5_IRQHandler)
    [Anonymous Symbol]                       0x080016f4   Section        0  isr.o(.text.DMA1_Channel6_IRQHandler)
    [Anonymous Symbol]                       0x08001718   Section        0  isr.o(.text.DMA1_Channel7_IRQHandler)
    [Anonymous Symbol]                       0x0800173c   Section        0  isr.o(.text.DMA2_Channel1_IRQHandler)
    [Anonymous Symbol]                       0x08001760   Section        0  isr.o(.text.DMA2_Channel2_IRQHandler)
    [Anonymous Symbol]                       0x08001788   Section        0  isr.o(.text.DMA2_Channel3_IRQHandler)
    [Anonymous Symbol]                       0x080017b0   Section        0  isr.o(.text.DMA2_Channel4_IRQHandler)
    [Anonymous Symbol]                       0x080017d8   Section        0  isr.o(.text.DMA2_Channel5_IRQHandler)
    [Anonymous Symbol]                       0x08001800   Section        0  isr.o(.text.EXTI0_IRQHandler)
    [Anonymous Symbol]                       0x08001814   Section        0  isr.o(.text.EXTI15_10_IRQHandler)
    [Anonymous Symbol]                       0x080018f8   Section        0  isr.o(.text.EXTI1_IRQHandler)
    [Anonymous Symbol]                       0x0800190c   Section        0  isr.o(.text.EXTI2_IRQHandler)
    [Anonymous Symbol]                       0x08001920   Section        0  isr.o(.text.EXTI3_IRQHandler)
    [Anonymous Symbol]                       0x08001934   Section        0  isr.o(.text.EXTI4_IRQHandler)
    [Anonymous Symbol]                       0x08001948   Section        0  isr.o(.text.EXTI9_5_IRQHandler)
    [Anonymous Symbol]                       0x08001a0c   Section        0  system_mm32f3277g.o(.text.SystemInit)
    [Anonymous Symbol]                       0x08001a1c   Section        0  isr.o(.text.TIM1_UP_IRQHandler)
    [Anonymous Symbol]                       0x08001a30   Section        0  isr.o(.text.TIM2_IRQHandler)
    [Anonymous Symbol]                       0x08001a40   Section        0  isr.o(.text.TIM3_IRQHandler)
    [Anonymous Symbol]                       0x08001a54   Section        0  isr.o(.text.TIM4_IRQHandler)
    [Anonymous Symbol]                       0x08001a68   Section        0  isr.o(.text.TIM5_IRQHandler)
    [Anonymous Symbol]                       0x08001a7c   Section        0  isr.o(.text.TIM6_IRQHandler)
    [Anonymous Symbol]                       0x08001a90   Section        0  isr.o(.text.TIM7_IRQHandler)
    [Anonymous Symbol]                       0x08001aa4   Section        0  isr.o(.text.TIM8_UP_IRQHandler)
    [Anonymous Symbol]                       0x08001abc   Section        0  isr.o(.text.UART1_IRQHandler)
    [Anonymous Symbol]                       0x08001b0c   Section        0  isr.o(.text.UART2_IRQHandler)
    [Anonymous Symbol]                       0x08001b54   Section        0  isr.o(.text.UART3_IRQHandler)
    [Anonymous Symbol]                       0x08001ba4   Section        0  isr.o(.text.UART4_IRQHandler)
    [Anonymous Symbol]                       0x08001bec   Section        0  isr.o(.text.UART5_IRQHandler)
    [Anonymous Symbol]                       0x08001c34   Section        0  isr.o(.text.UART6_IRQHandler)
    [Anonymous Symbol]                       0x08001c8c   Section        0  isr.o(.text.UART7_IRQHandler)
    [Anonymous Symbol]                       0x08001cd4   Section        0  isr.o(.text.UART8_IRQHandler)
    __NVIC_DisableIRQ                        0x08001d2d   Thumb Code    56  zf_common_interrupt.o(.text.__NVIC_DisableIRQ)
    [Anonymous Symbol]                       0x08001d2c   Section        0  zf_common_interrupt.o(.text.__NVIC_DisableIRQ)
    __NVIC_EnableIRQ                         0x08001d65   Thumb Code    48  zf_common_interrupt.o(.text.__NVIC_EnableIRQ)
    [Anonymous Symbol]                       0x08001d64   Section        0  zf_common_interrupt.o(.text.__NVIC_EnableIRQ)
    __NVIC_SetPriority                       0x08001d95   Thumb Code    66  zf_common_interrupt.o(.text.__NVIC_SetPriority)
    [Anonymous Symbol]                       0x08001d94   Section        0  zf_common_interrupt.o(.text.__NVIC_SetPriority)
    __NVIC_SetPriorityGrouping               0x08001dd9   Thumb Code    60  zf_common_interrupt.o(.text.__NVIC_SetPriorityGrouping)
    [Anonymous Symbol]                       0x08001dd8   Section        0  zf_common_interrupt.o(.text.__NVIC_SetPriorityGrouping)
    [Anonymous Symbol]                       0x08001e14   Section        0  zf_driver_adc.o(.text.adc_convert)
    [Anonymous Symbol]                       0x08001eac   Section        0  zf_driver_gpio.o(.text.afio_init)
    [Anonymous Symbol]                       0x0800202c   Section        0  zf_common_clock.o(.text.clock_init)
    clock_reset                              0x08002051   Thumb Code   152  zf_common_clock.o(.text.clock_reset)
    [Anonymous Symbol]                       0x08002050   Section        0  zf_common_clock.o(.text.clock_reset)
    clock_set_freq                           0x080020e9   Thumb Code   608  zf_common_clock.o(.text.clock_set_freq)
    [Anonymous Symbol]                       0x080020e8   Section        0  zf_common_clock.o(.text.clock_set_freq)
    [Anonymous Symbol]                       0x08002348   Section        0  zf_common_debug.o(.text.debug_assert_handler)
    debug_delay                              0x080023b5   Thumb Code    64  zf_common_debug.o(.text.debug_delay)
    [Anonymous Symbol]                       0x080023b4   Section        0  zf_common_debug.o(.text.debug_delay)
    debug_output                             0x080023f5   Thumb Code   942  zf_common_debug.o(.text.debug_output)
    [Anonymous Symbol]                       0x080023f4   Section        0  zf_common_debug.o(.text.debug_output)
    [Anonymous Symbol]                       0x080027a4   Section        0  zf_common_debug.o(.text.debug_output_init)
    [Anonymous Symbol]                       0x080027f0   Section        0  zf_common_debug.o(.text.debug_output_struct_init)
    debug_protective_handler                 0x08002821   Thumb Code   240  zf_common_debug.o(.text.debug_protective_handler)
    [Anonymous Symbol]                       0x08002820   Section        0  zf_common_debug.o(.text.debug_protective_handler)
    [Anonymous Symbol]                       0x08002910   Section        0  zf_device_dm1xa.o(.text.dm1xa_light_callback)
    [Anonymous Symbol]                       0x0800294c   Section        0  zf_device_dm1xa.o(.text.dm1xa_sound_callback)
    [Anonymous Symbol]                       0x08002a4c   Section        0  zf_driver_encoder.o(.text.encoder_quad_init)
    [Anonymous Symbol]                       0x08002ba8   Section        0  zf_common_fifo.o(.text.fifo_clear)
    fifo_end_offset                          0x08002c51   Thumb Code    46  zf_common_fifo.o(.text.fifo_end_offset)
    [Anonymous Symbol]                       0x08002c50   Section        0  zf_common_fifo.o(.text.fifo_end_offset)
    fifo_head_offset                         0x08002c81   Thumb Code    46  zf_common_fifo.o(.text.fifo_head_offset)
    [Anonymous Symbol]                       0x08002c80   Section        0  zf_common_fifo.o(.text.fifo_head_offset)
    [Anonymous Symbol]                       0x08002cb0   Section        0  zf_common_fifo.o(.text.fifo_init)
    [Anonymous Symbol]                       0x08002d20   Section        0  zf_common_fifo.o(.text.fifo_read_buffer)
    [Anonymous Symbol]                       0x08002f10   Section        0  zf_common_fifo.o(.text.fifo_used)
    [Anonymous Symbol]                       0x08002f38   Section        0  zf_common_fifo.o(.text.fifo_write_buffer)
    [Anonymous Symbol]                       0x08003134   Section        0  zf_common_function.o(.text.func_get_greatest_common_divisor)
    [Anonymous Symbol]                       0x08003178   Section        0  zf_common_function.o(.text.func_int_to_str)
    [Anonymous Symbol]                       0x0800326c   Section        0  zf_driver_gpio.o(.text.gpio_get_level)
    [Anonymous Symbol]                       0x0800329c   Section        0  zf_driver_gpio.o(.text.gpio_init)
    [Anonymous Symbol]                       0x08003484   Section        0  zf_driver_gpio.o(.text.gpio_set_level)
    [Anonymous Symbol]                       0x080034e8   Section        0  zf_device_gps_tau1201.o(.text.gps_uart_callback)
    [Anonymous Symbol]                       0x08003624   Section        0  zf_common_interrupt.o(.text.interrupt_disable)
    [Anonymous Symbol]                       0x08003638   Section        0  zf_common_interrupt.o(.text.interrupt_enable)
    [Anonymous Symbol]                       0x0800364c   Section        0  zf_common_interrupt.o(.text.interrupt_global_disable)
    [Anonymous Symbol]                       0x08003670   Section        0  zf_common_interrupt.o(.text.interrupt_init)
    [Anonymous Symbol]                       0x0800367c   Section        0  zf_common_interrupt.o(.text.interrupt_set_priority)
    [Anonymous Symbol]                       0x08003698   Section        0  main.o(.text.main)
    [Anonymous Symbol]                       0x080037fc   Section        0  zf_driver_spi.o(.text.spi_init)
    [Anonymous Symbol]                       0x08003b64   Section        0  zf_driver_spi.o(.text.spi_write_16bit)
    [Anonymous Symbol]                       0x08003c1c   Section        0  zf_driver_spi.o(.text.spi_write_8bit)
    [Anonymous Symbol]                       0x08003ca4   Section        0  zf_driver_delay.o(.text.system_delay)
    [Anonymous Symbol]                       0x08003d20   Section        0  zf_device_tft180.o(.text.tft180_clear)
    tft180_debug_init                        0x08003d9d   Thumb Code   138  zf_device_tft180.o(.text.tft180_debug_init)
    [Anonymous Symbol]                       0x08003d9c   Section        0  zf_device_tft180.o(.text.tft180_debug_init)
    [Anonymous Symbol]                       0x08003e28   Section        0  zf_device_tft180.o(.text.tft180_init)
    [Anonymous Symbol]                       0x08004208   Section        0  zf_device_tft180.o(.text.tft180_set_color)
    [Anonymous Symbol]                       0x08004234   Section        0  zf_device_tft180.o(.text.tft180_set_dir)
    tft180_set_region                        0x08004299   Thumb Code   394  zf_device_tft180.o(.text.tft180_set_region)
    [Anonymous Symbol]                       0x08004298   Section        0  zf_device_tft180.o(.text.tft180_set_region)
    [Anonymous Symbol]                       0x08004424   Section        0  zf_device_tft180.o(.text.tft180_show_char)
    [Anonymous Symbol]                       0x080046c0   Section        0  zf_device_tft180.o(.text.tft180_show_int)
    [Anonymous Symbol]                       0x080047c0   Section        0  zf_device_tft180.o(.text.tft180_show_string)
    tft180_write_index                       0x0800489d   Thumb Code    54  zf_device_tft180.o(.text.tft180_write_index)
    [Anonymous Symbol]                       0x0800489c   Section        0  zf_device_tft180.o(.text.tft180_write_index)
    [Anonymous Symbol]                       0x080048d4   Section        0  zf_driver_timer.o(.text.timer_clear)
    [Anonymous Symbol]                       0x08004988   Section        0  zf_driver_timer.o(.text.timer_clock_enable)
    [Anonymous Symbol]                       0x08004a40   Section        0  zf_driver_timer.o(.text.timer_funciton_check)
    [Anonymous Symbol]                       0x08004aa8   Section        0  zf_driver_timer.o(.text.timer_get)
    [Anonymous Symbol]                       0x08004b60   Section        0  zf_device_tsl1401.o(.text.tsl1401_collect_pit_handler)
    type_default_callback                    0x08004c41   Thumb Code     2  zf_device_type.o(.text.type_default_callback)
    [Anonymous Symbol]                       0x08004c40   Section        0  zf_device_type.o(.text.type_default_callback)
    [Anonymous Symbol]                       0x08004c44   Section        0  zf_driver_uart.o(.text.uart_init)
    [Anonymous Symbol]                       0x08004ed0   Section        0  zf_driver_uart.o(.text.uart_query_byte)
    [Anonymous Symbol]                       0x08004f38   Section        0  zf_driver_uart.o(.text.uart_rx_interrupt)
    [Anonymous Symbol]                       0x08004fd8   Section        0  main.o(.text.uart_rx_interrupt_handler)
    [Anonymous Symbol]                       0x08005000   Section        0  zf_driver_uart.o(.text.uart_write_byte)
    [Anonymous Symbol]                       0x08005040   Section        0  zf_driver_uart.o(.text.uart_write_string)
    i.__0sprintf                             0x08005080   Section        0  printfa.o(i.__0sprintf)
    i.__scatterload_copy                     0x080050a8   Section       14  handlers.o(i.__scatterload_copy)
    i.__scatterload_null                     0x080050b6   Section        2  handlers.o(i.__scatterload_null)
    i.__scatterload_zeroinit                 0x080050b8   Section       14  handlers.o(i.__scatterload_zeroinit)
    _fp_digits                               0x080050c9   Thumb Code   366  printfa.o(i._fp_digits)
    i._fp_digits                             0x080050c8   Section        0  printfa.o(i._fp_digits)
    i._is_digit                              0x0800524c   Section        0  scanf_fp.o(i._is_digit)
    _printf_core                             0x0800525d   Thumb Code  1744  printfa.o(i._printf_core)
    i._printf_core                           0x0800525c   Section        0  printfa.o(i._printf_core)
    _printf_post_padding                     0x08005939   Thumb Code    36  printfa.o(i._printf_post_padding)
    i._printf_post_padding                   0x08005938   Section        0  printfa.o(i._printf_post_padding)
    _printf_pre_padding                      0x0800595d   Thumb Code    46  printfa.o(i._printf_pre_padding)
    i._printf_pre_padding                    0x0800595c   Section        0  printfa.o(i._printf_pre_padding)
    _sputc                                   0x0800598b   Thumb Code    10  printfa.o(i._sputc)
    i._sputc                                 0x0800598a   Section        0  printfa.o(i._sputc)
    .constdata                               0x08005994   Section       64  ctype_c.o(.constdata)
    .L__const.debug_protective_handler.pin_list 0x080059d4   Data         172  zf_common_debug.o(.rodata..L__const.debug_protective_handler.pin_list)
    .L.str.2                                 0x08006298   Data          12  main.o(.rodata.str1.1)
    [Anonymous Symbol]                       0x08006298   Section        0  main.o(.rodata.str1.1)
    .L.str.4                                 0x080062a4   Data          12  main.o(.rodata.str1.1)
    .L.str                                   0x080062b0   Data          11  main.o(.rodata.str1.1)
    .L.str.1                                 0x080062bb   Data           5  main.o(.rodata.str1.1)
    .L.str.3                                 0x080062c0   Data           5  main.o(.rodata.str1.1)
    .L.str.6                                 0x080062c5   Data          21  zf_common_debug.o(.rodata.str1.1)
    [Anonymous Symbol]                       0x080062c5   Section        0  zf_common_debug.o(.rodata.str1.1)
    .L.str.1                                 0x080062d2   Data          12  zf_common_debug.o(.rodata.str1.1)
    .L.str.5                                 0x080062da   Data          25  zf_common_debug.o(.rodata.str1.1)
    .L.str.4                                 0x080062f3   Data           9  zf_common_debug.o(.rodata.str1.1)
    .L.str                                   0x080062fc   Data          13  zf_common_debug.o(.rodata.str1.1)
    .L.str.2                                 0x08006309   Data           9  zf_common_debug.o(.rodata.str1.1)
    .L.str.3                                 0x08006312   Data          13  zf_common_debug.o(.rodata.str1.1)
    .L.str                                   0x0800631f   Data          43  zf_common_fifo.o(.rodata.str1.1)
    [Anonymous Symbol]                       0x0800631f   Section        0  zf_common_fifo.o(.rodata.str1.1)
    .L.str                                   0x0800634a   Data          47  zf_common_function.o(.rodata.str1.1)
    [Anonymous Symbol]                       0x0800634a   Section        0  zf_common_function.o(.rodata.str1.1)
    .L.str                                   0x08006379   Data          46  zf_driver_encoder.o(.rodata.str1.1)
    [Anonymous Symbol]                       0x08006379   Section        0  zf_driver_encoder.o(.rodata.str1.1)
    .L.str                                   0x080063a7   Data          42  zf_driver_spi.o(.rodata.str1.1)
    [Anonymous Symbol]                       0x080063a7   Section        0  zf_driver_spi.o(.rodata.str1.1)
    .L.str                                   0x080063d1   Data          43  zf_driver_uart.o(.rodata.str1.1)
    [Anonymous Symbol]                       0x080063d1   Section        0  zf_driver_uart.o(.rodata.str1.1)
    .L.str.1                                 0x080063fc   Data           4  zf_device_gps_tau1201.o(.rodata.str1.1)
    [Anonymous Symbol]                       0x080063fc   Section        0  zf_device_gps_tau1201.o(.rodata.str1.1)
    .L.str                                   0x08006400   Data           4  zf_device_gps_tau1201.o(.rodata.str1.1)
    .L.str                                   0x08006404   Data          45  zf_device_tft180.o(.rodata.str1.1)
    [Anonymous Symbol]                       0x08006404   Section        0  zf_device_tft180.o(.rodata.str1.1)
    adc_index                                0x20000000   Data          12  zf_driver_adc.o(.data.adc_index)
    [Anonymous Symbol]                       0x20000000   Section        0  zf_driver_adc.o(.data.adc_index)
    dm1xa_distance_mm                        0x20000018   Data           2  zf_device_dm1xa.o(.data.dm1xa_distance_mm)
    [Anonymous Symbol]                       0x20000018   Section        0  zf_device_dm1xa.o(.data.dm1xa_distance_mm)
    spi_index                                0x2000003c   Data          12  zf_driver_spi.o(.data.spi_index)
    [Anonymous Symbol]                       0x2000003c   Section        0  zf_driver_spi.o(.data.spi_index)
    tft180_display_font                      0x2000004c   Data           1  zf_device_tft180.o(.data.tft180_display_font)
    [Anonymous Symbol]                       0x2000004c   Section        0  zf_device_tft180.o(.data.tft180_display_font)
    tft180_pencolor                          0x2000004e   Data           2  zf_device_tft180.o(.data.tft180_pencolor)
    [Anonymous Symbol]                       0x2000004e   Section        0  zf_device_tft180.o(.data.tft180_pencolor)
    tft180_x_max                             0x20000050   Data           1  zf_device_tft180.o(.data.tft180_x_max)
    [Anonymous Symbol]                       0x20000050   Section        0  zf_device_tft180.o(.data.tft180_x_max)
    tft180_y_max                             0x20000051   Data           1  zf_device_tft180.o(.data.tft180_y_max)
    [Anonymous Symbol]                       0x20000051   Section        0  zf_device_tft180.o(.data.tft180_y_max)
    uart_index                               0x20000054   Data          32  zf_driver_uart.o(.data.uart_index)
    [Anonymous Symbol]                       0x20000054   Section        0  zf_driver_uart.o(.data.uart_index)
    uart_irq                                 0x20000074   Data           8  zf_driver_uart.o(.data.uart_irq)
    [Anonymous Symbol]                       0x20000074   Section        0  zf_driver_uart.o(.data.uart_irq)
    zf_debug_assert_enable                   0x20000080   Data           1  zf_common_debug.o(.data.zf_debug_assert_enable)
    [Anonymous Symbol]                       0x20000080   Section        0  zf_common_debug.o(.data.zf_debug_assert_enable)
    adc_resolution                           0x20000084   Data           3  zf_driver_adc.o(.bss.adc_resolution)
    [Anonymous Symbol]                       0x20000084   Section        0  zf_driver_adc.o(.bss.adc_resolution)
    debug_assert_handler.assert_nest_index   0x20000087   Data           1  zf_common_debug.o(.bss.debug_assert_handler.assert_nest_index)
    [Anonymous Symbol]                       0x20000087   Section        0  zf_common_debug.o(.bss.debug_assert_handler.assert_nest_index)
    debug_output_info                        0x20000088   Data          20  zf_common_debug.o(.bss.debug_output_info)
    [Anonymous Symbol]                       0x20000088   Section        0  zf_common_debug.o(.bss.debug_output_info)
    dm1xa_plus_count                         0x2000009c   Data           4  zf_device_dm1xa.o(.bss.dm1xa_plus_count)
    [Anonymous Symbol]                       0x2000009c   Section        0  zf_device_dm1xa.o(.bss.dm1xa_plus_count)
    dm1xa_ranging_state                      0x200000a0   Data           1  zf_device_dm1xa.o(.bss.dm1xa_ranging_state)
    [Anonymous Symbol]                       0x200000a0   Section        0  zf_device_dm1xa.o(.bss.dm1xa_ranging_state)
    dm1xa_type                               0x200000a1   Data           1  zf_device_dm1xa.o(.bss.dm1xa_type)
    [Anonymous Symbol]                       0x200000a1   Section        0  zf_device_dm1xa.o(.bss.dm1xa_type)
    gps_gga_buffer                           0x200000e9   Data         128  zf_device_gps_tau1201.o(.bss.gps_gga_buffer)
    [Anonymous Symbol]                       0x200000e9   Section        0  zf_device_gps_tau1201.o(.bss.gps_gga_buffer)
    gps_rmc_buffer                           0x2000016a   Data         128  zf_device_gps_tau1201.o(.bss.gps_rmc_buffer)
    [Anonymous Symbol]                       0x2000016a   Section        0  zf_device_gps_tau1201.o(.bss.gps_rmc_buffer)
    gps_tau1201_receiver_fifo                0x200001ec   Data          24  zf_device_gps_tau1201.o(.bss.gps_tau1201_receiver_fifo)
    [Anonymous Symbol]                       0x200001ec   Section        0  zf_device_gps_tau1201.o(.bss.gps_tau1201_receiver_fifo)
    gps_tau1201_state                        0x20000204   Data           1  zf_device_gps_tau1201.o(.bss.gps_tau1201_state)
    [Anonymous Symbol]                       0x20000204   Section        0  zf_device_gps_tau1201.o(.bss.gps_tau1201_state)
    interrupt_nest_count                     0x20000208   Data           4  zf_common_interrupt.o(.bss.interrupt_nest_count)
    [Anonymous Symbol]                       0x20000208   Section        0  zf_common_interrupt.o(.bss.interrupt_nest_count)
    tft180_bgcolor                           0x2000020c   Data           2  zf_device_tft180.o(.bss.tft180_bgcolor)
    [Anonymous Symbol]                       0x2000020c   Section        0  zf_device_tft180.o(.bss.tft180_bgcolor)
    tft180_display_dir                       0x2000020e   Data           1  zf_device_tft180.o(.bss.tft180_display_dir)
    [Anonymous Symbol]                       0x2000020e   Section        0  zf_device_tft180.o(.bss.tft180_display_dir)
    timer_function_state                     0x2000020f   Data           8  zf_driver_timer.o(.bss.timer_function_state)
    [Anonymous Symbol]                       0x2000020f   Section        0  zf_driver_timer.o(.bss.timer_function_state)
    timer_mode_state                         0x20000217   Data           8  zf_driver_timer.o(.bss.timer_mode_state)
    [Anonymous Symbol]                       0x20000217   Section        0  zf_driver_timer.o(.bss.timer_mode_state)
    tsl1401_init_state                       0x20000421   Data           1  zf_device_tsl1401.o(.bss.tsl1401_init_state)
    [Anonymous Symbol]                       0x20000421   Section        0  zf_device_tsl1401.o(.bss.tsl1401_init_state)
    uart_interrupt_state                     0x2000047c   Data           8  zf_driver_uart.o(.bss.uart_interrupt_state)
    [Anonymous Symbol]                       0x2000047c   Section        0  zf_driver_uart.o(.bss.uart_interrupt_state)
    zf_debug_init_flag                       0x20000484   Data           1  zf_common_debug.o(.bss.zf_debug_init_flag)
    [Anonymous Symbol]                       0x20000484   Section        0  zf_common_debug.o(.bss.zf_debug_init_flag)

    Global Symbols

    Symbol Name                              Value     Ov Type        Size  Object(Section)

    BuildAttributes$$THM_ISAv4$P$D$K$B$S$PE$A:L22UL41UL21$X:L11$S22US41US21$IEEE1$IW$~IW$USESV6$~STKCKD$USESV7$~SHL$OTIME$ROPI$IEEEX$EBA8$MICROLIB$REQ8$PRES8$EABIv2 0x00000000   Number         0  anon$$obj.o ABSOLUTE
    __cpp_initialize__aeabi_                  - Undefined Weak Reference
    __cxa_finalize                            - Undefined Weak Reference
    __decompress                              - Undefined Weak Reference
    _clock_init                               - Undefined Weak Reference
    _microlib_exit                            - Undefined Weak Reference
    __Vectors_Size                           0x00000190   Number         0  startup_mm32f3277g.o ABSOLUTE
    __Vectors                                0x08000000   Data           4  startup_mm32f3277g.o(RESET)
    __Vectors_End                            0x08000190   Data           0  startup_mm32f3277g.o(RESET)
    __main                                   0x08000401   Thumb Code     0  entry.o(.ARM.Collect$$$$00000000)
    _main_stk                                0x08000401   Thumb Code     0  entry4.o(.ARM.Collect$$$$00000003)
    _main_scatterload                        0x08000405   Thumb Code     0  entry5.o(.ARM.Collect$$$$00000004)
    __main_after_scatterload                 0x08000409   Thumb Code     0  entry5.o(.ARM.Collect$$$$00000004)
    _main_clock                              0x08000409   Thumb Code     0  entry7b.o(.ARM.Collect$$$$00000008)
    _main_cpp_init                           0x08000409   Thumb Code     0  entry8b.o(.ARM.Collect$$$$0000000A)
    _main_init                               0x08000409   Thumb Code     0  entry9a.o(.ARM.Collect$$$$0000000B)
    __rt_final_cpp                           0x08000411   Thumb Code     0  entry10a.o(.ARM.Collect$$$$0000000D)
    __rt_final_exit                          0x08000411   Thumb Code     0  entry11a.o(.ARM.Collect$$$$0000000F)
    Reset_Handler                            0x08000415   Thumb Code     8  startup_mm32f3277g.o(.text)
    NMI_Handler                              0x0800041d   Thumb Code     2  startup_mm32f3277g.o(.text)
    HardFault_Handler                        0x0800041f   Thumb Code     2  startup_mm32f3277g.o(.text)
    MemManage_Handler                        0x08000421   Thumb Code     2  startup_mm32f3277g.o(.text)
    BusFault_Handler                         0x08000423   Thumb Code     2  startup_mm32f3277g.o(.text)
    UsageFault_Handler                       0x08000425   Thumb Code     2  startup_mm32f3277g.o(.text)
    SVC_Handler                              0x08000427   Thumb Code     2  startup_mm32f3277g.o(.text)
    DebugMon_Handler                         0x08000429   Thumb Code     2  startup_mm32f3277g.o(.text)
    PendSV_Handler                           0x0800042b   Thumb Code     2  startup_mm32f3277g.o(.text)
    SysTick_Handler                          0x0800042d   Thumb Code     2  startup_mm32f3277g.o(.text)
    ADC1_2_IRQHandler                        0x0800042f   Thumb Code     0  startup_mm32f3277g.o(.text)
    ADC3_IRQHandler                          0x0800042f   Thumb Code     0  startup_mm32f3277g.o(.text)
    CAN1_RX_IRQHandler                       0x0800042f   Thumb Code     0  startup_mm32f3277g.o(.text)
    COMP1_2_IRQHandler                       0x0800042f   Thumb Code     0  startup_mm32f3277g.o(.text)
    ETH_IRQHandler                           0x0800042f   Thumb Code     0  startup_mm32f3277g.o(.text)
    FLASH_IRQHandler                         0x0800042f   Thumb Code     0  startup_mm32f3277g.o(.text)
    FlashCache_IRQHandler                    0x0800042f   Thumb Code     0  startup_mm32f3277g.o(.text)
    I2C1_IRQHandler                          0x0800042f   Thumb Code     0  startup_mm32f3277g.o(.text)
    I2C2_IRQHandler                          0x0800042f   Thumb Code     0  startup_mm32f3277g.o(.text)
    OTG_FS_IRQHandler                        0x0800042f   Thumb Code     0  startup_mm32f3277g.o(.text)
    OTG_FS_WKUP_IRQHandler                   0x0800042f   Thumb Code     0  startup_mm32f3277g.o(.text)
    PVD_IRQHandler                           0x0800042f   Thumb Code     0  startup_mm32f3277g.o(.text)
    RCC_CRS_IRQHandler                       0x0800042f   Thumb Code     0  startup_mm32f3277g.o(.text)
    RTCAlarm_IRQHandler                      0x0800042f   Thumb Code     0  startup_mm32f3277g.o(.text)
    RTC_IRQHandler                           0x0800042f   Thumb Code     0  startup_mm32f3277g.o(.text)
    SDIO_IRQHandler                          0x0800042f   Thumb Code     0  startup_mm32f3277g.o(.text)
    SPI1_IRQHandler                          0x0800042f   Thumb Code     0  startup_mm32f3277g.o(.text)
    SPI2_IRQHandler                          0x0800042f   Thumb Code     0  startup_mm32f3277g.o(.text)
    SPI3_IRQHandler                          0x0800042f   Thumb Code     0  startup_mm32f3277g.o(.text)
    TAMPER_IRQHandler                        0x0800042f   Thumb Code     0  startup_mm32f3277g.o(.text)
    TIM1_BRK_IRQHandler                      0x0800042f   Thumb Code     0  startup_mm32f3277g.o(.text)
    TIM1_CC_IRQHandler                       0x0800042f   Thumb Code     0  startup_mm32f3277g.o(.text)
    TIM1_TRG_COM_IRQHandler                  0x0800042f   Thumb Code     0  startup_mm32f3277g.o(.text)
    TIM8_BRK_IRQHandler                      0x0800042f   Thumb Code     0  startup_mm32f3277g.o(.text)
    TIM8_CC_IRQHandler                       0x0800042f   Thumb Code     0  startup_mm32f3277g.o(.text)
    TIM8_TRG_COM_IRQHandler                  0x0800042f   Thumb Code     0  startup_mm32f3277g.o(.text)
    WWDG_IRQHandler                          0x0800042f   Thumb Code     0  startup_mm32f3277g.o(.text)
    __aeabi_memcpy                           0x08000439   Thumb Code    36  memcpya.o(.text)
    __aeabi_memcpy4                          0x08000439   Thumb Code     0  memcpya.o(.text)
    __aeabi_memcpy8                          0x08000439   Thumb Code     0  memcpya.o(.text)
    __aeabi_memset                           0x0800045d   Thumb Code    14  memseta.o(.text)
    __aeabi_memset4                          0x0800045d   Thumb Code     0  memseta.o(.text)
    __aeabi_memset8                          0x0800045d   Thumb Code     0  memseta.o(.text)
    __aeabi_memclr                           0x0800046b   Thumb Code     4  memseta.o(.text)
    __aeabi_memclr4                          0x0800046b   Thumb Code     0  memseta.o(.text)
    __aeabi_memclr8                          0x0800046b   Thumb Code     0  memseta.o(.text)
    _memset$wrapper                          0x0800046f   Thumb Code    18  memseta.o(.text)
    strstr                                   0x08000481   Thumb Code    36  strstr.o(.text)
    strlen                                   0x080004a5   Thumb Code    14  strlen.o(.text)
    strncmp                                  0x080004b3   Thumb Code    30  strncmp.o(.text)
    sscanf                                   0x080004d1   Thumb Code    48  sscanf.o(.text)
    __aeabi_dadd                             0x08000509   Thumb Code   322  dadd.o(.text)
    __aeabi_dsub                             0x0800064b   Thumb Code     6  dadd.o(.text)
    __aeabi_drsub                            0x08000651   Thumb Code     6  dadd.o(.text)
    __aeabi_dmul                             0x08000657   Thumb Code   228  dmul.o(.text)
    __aeabi_ddiv                             0x0800073b   Thumb Code   222  ddiv.o(.text)
    __aeabi_ui2f                             0x08000819   Thumb Code    10  ffltui.o(.text)
    __aeabi_d2iz                             0x08000823   Thumb Code    62  dfixi.o(.text)
    __aeabi_f2d                              0x08000861   Thumb Code    38  f2d.o(.text)
    __aeabi_d2f                              0x08000887   Thumb Code    56  d2f.o(.text)
    __aeabi_uidiv                            0x080008bf   Thumb Code     0  uidiv.o(.text)
    __aeabi_uidivmod                         0x080008bf   Thumb Code    44  uidiv.o(.text)
    __aeabi_uldivmod                         0x080008eb   Thumb Code    98  uldiv.o(.text)
    __aeabi_llsl                             0x0800094d   Thumb Code    30  llshl.o(.text)
    _ll_shift_l                              0x0800094d   Thumb Code     0  llshl.o(.text)
    __aeabi_llsr                             0x0800096b   Thumb Code    32  llushr.o(.text)
    _ll_ushift_r                             0x0800096b   Thumb Code     0  llushr.o(.text)
    __aeabi_lasr                             0x0800098b   Thumb Code    36  llsshr.o(.text)
    _ll_sshift_r                             0x0800098b   Thumb Code     0  llsshr.o(.text)
    _scanf_longlong                          0x080009af   Thumb Code   342  _scanf_longlong.o(.text)
    _scanf_int                               0x08000b05   Thumb Code   332  _scanf_int.o(.text)
    _scanf_string                            0x08000c51   Thumb Code   224  _scanf_str.o(.text)
    _scanf_real                              0x08000e59   Thumb Code     0  scanf_fp.o(.text)
    _scanf_really_real                       0x08000e59   Thumb Code   556  scanf_fp.o(.text)
    __vfscanf_char                           0x0800109d   Thumb Code    20  scanf_char.o(.text)
    _sgetc                                   0x080010b9   Thumb Code    30  _sgetc.o(.text)
    _sbackspace                              0x080010d7   Thumb Code    34  _sgetc.o(.text)
    __I$use$fp                               0x080010f9   Thumb Code     0  iusefp.o(.text)
    _float_round                             0x080010f9   Thumb Code    18  fepilogue.o(.text)
    _float_epilogue                          0x0800110b   Thumb Code    92  fepilogue.o(.text)
    _double_round                            0x08001167   Thumb Code    30  depilogue.o(.text)
    _double_epilogue                         0x08001185   Thumb Code   156  depilogue.o(.text)
    __aeabi_d2ulz                            0x08001221   Thumb Code    48  dfixul.o(.text)
    __aeabi_cdrcmple                         0x08001251   Thumb Code    48  cdrcmple.o(.text)
    __scatterload                            0x08001281   Thumb Code    28  init.o(.text)
    __scatterload_rt2                        0x08001281   Thumb Code     0  init.o(.text)
    isspace                                  0x080012a5   Thumb Code    10  isspace_c.o(.text)
    _chval                                   0x080012af   Thumb Code    28  _chval.o(.text)
    __vfscanf                                0x080012cd   Thumb Code   808  _scanf.o(.text)
    __aeabi_ul2d                             0x080015f9   Thumb Code    24  dfltul.o(.text)
    __ctype_lookup                           0x08001611   Thumb Code    34  ctype_c.o(.text)
    DMA1_Channel1_IRQHandler                 0x08001639   Thumb Code    32  isr.o(.text.DMA1_Channel1_IRQHandler)
    DMA1_Channel2_IRQHandler                 0x08001659   Thumb Code    34  isr.o(.text.DMA1_Channel2_IRQHandler)
    DMA1_Channel3_IRQHandler                 0x0800167d   Thumb Code    34  isr.o(.text.DMA1_Channel3_IRQHandler)
    DMA1_Channel4_IRQHandler                 0x080016a1   Thumb Code    48  isr.o(.text.DMA1_Channel4_IRQHandler)
    DMA1_Channel5_IRQHandler                 0x080016d1   Thumb Code    34  isr.o(.text.DMA1_Channel5_IRQHandler)
    DMA1_Channel6_IRQHandler                 0x080016f5   Thumb Code    34  isr.o(.text.DMA1_Channel6_IRQHandler)
    DMA1_Channel7_IRQHandler                 0x08001719   Thumb Code    34  isr.o(.text.DMA1_Channel7_IRQHandler)
    DMA2_Channel1_IRQHandler                 0x0800173d   Thumb Code    36  isr.o(.text.DMA2_Channel1_IRQHandler)
    DMA2_Channel2_IRQHandler                 0x08001761   Thumb Code    38  isr.o(.text.DMA2_Channel2_IRQHandler)
    DMA2_Channel3_IRQHandler                 0x08001789   Thumb Code    38  isr.o(.text.DMA2_Channel3_IRQHandler)
    DMA2_Channel4_IRQHandler                 0x080017b1   Thumb Code    38  isr.o(.text.DMA2_Channel4_IRQHandler)
    DMA2_Channel5_IRQHandler                 0x080017d9   Thumb Code    38  isr.o(.text.DMA2_Channel5_IRQHandler)
    EXTI0_IRQHandler                         0x08001801   Thumb Code    18  isr.o(.text.EXTI0_IRQHandler)
    EXTI15_10_IRQHandler                     0x08001815   Thumb Code   228  isr.o(.text.EXTI15_10_IRQHandler)
    EXTI1_IRQHandler                         0x080018f9   Thumb Code    18  isr.o(.text.EXTI1_IRQHandler)
    EXTI2_IRQHandler                         0x0800190d   Thumb Code    18  isr.o(.text.EXTI2_IRQHandler)
    EXTI3_IRQHandler                         0x08001921   Thumb Code    18  isr.o(.text.EXTI3_IRQHandler)
    EXTI4_IRQHandler                         0x08001935   Thumb Code    18  isr.o(.text.EXTI4_IRQHandler)
    EXTI9_5_IRQHandler                       0x08001949   Thumb Code   196  isr.o(.text.EXTI9_5_IRQHandler)
    SystemInit                               0x08001a0d   Thumb Code    16  system_mm32f3277g.o(.text.SystemInit)
    TIM1_UP_IRQHandler                       0x08001a1d   Thumb Code    18  isr.o(.text.TIM1_UP_IRQHandler)
    TIM2_IRQHandler                          0x08001a31   Thumb Code    16  isr.o(.text.TIM2_IRQHandler)
    TIM3_IRQHandler                          0x08001a41   Thumb Code    18  isr.o(.text.TIM3_IRQHandler)
    TIM4_IRQHandler                          0x08001a55   Thumb Code    18  isr.o(.text.TIM4_IRQHandler)
    TIM5_IRQHandler                          0x08001a69   Thumb Code    18  isr.o(.text.TIM5_IRQHandler)
    TIM6_IRQHandler                          0x08001a7d   Thumb Code    18  isr.o(.text.TIM6_IRQHandler)
    TIM7_IRQHandler                          0x08001a91   Thumb Code    18  isr.o(.text.TIM7_IRQHandler)
    TIM8_UP_IRQHandler                       0x08001aa5   Thumb Code    24  isr.o(.text.TIM8_UP_IRQHandler)
    UART1_IRQHandler                         0x08001abd   Thumb Code    78  isr.o(.text.UART1_IRQHandler)
    UART2_IRQHandler                         0x08001b0d   Thumb Code    72  isr.o(.text.UART2_IRQHandler)
    UART3_IRQHandler                         0x08001b55   Thumb Code    78  isr.o(.text.UART3_IRQHandler)
    UART4_IRQHandler                         0x08001ba5   Thumb Code    72  isr.o(.text.UART4_IRQHandler)
    UART5_IRQHandler                         0x08001bed   Thumb Code    72  isr.o(.text.UART5_IRQHandler)
    UART6_IRQHandler                         0x08001c35   Thumb Code    86  isr.o(.text.UART6_IRQHandler)
    UART7_IRQHandler                         0x08001c8d   Thumb Code    72  isr.o(.text.UART7_IRQHandler)
    UART8_IRQHandler                         0x08001cd5   Thumb Code    86  isr.o(.text.UART8_IRQHandler)
    adc_convert                              0x08001e15   Thumb Code   150  zf_driver_adc.o(.text.adc_convert)
    afio_init                                0x08001ead   Thumb Code   384  zf_driver_gpio.o(.text.afio_init)
    clock_init                               0x0800202d   Thumb Code    36  zf_common_clock.o(.text.clock_init)
    debug_assert_handler                     0x08002349   Thumb Code   108  zf_common_debug.o(.text.debug_assert_handler)
    debug_output_init                        0x080027a5   Thumb Code    76  zf_common_debug.o(.text.debug_output_init)
    debug_output_struct_init                 0x080027f1   Thumb Code    48  zf_common_debug.o(.text.debug_output_struct_init)
    dm1xa_light_callback                     0x08002911   Thumb Code    58  zf_device_dm1xa.o(.text.dm1xa_light_callback)
    dm1xa_sound_callback                     0x0800294d   Thumb Code   256  zf_device_dm1xa.o(.text.dm1xa_sound_callback)
    encoder_quad_init                        0x08002a4d   Thumb Code   346  zf_driver_encoder.o(.text.encoder_quad_init)
    fifo_clear                               0x08002ba9   Thumb Code   168  zf_common_fifo.o(.text.fifo_clear)
    fifo_init                                0x08002cb1   Thumb Code   110  zf_common_fifo.o(.text.fifo_init)
    fifo_read_buffer                         0x08002d21   Thumb Code   494  zf_common_fifo.o(.text.fifo_read_buffer)
    fifo_used                                0x08002f11   Thumb Code    40  zf_common_fifo.o(.text.fifo_used)
    fifo_write_buffer                        0x08002f39   Thumb Code   506  zf_common_fifo.o(.text.fifo_write_buffer)
    func_get_greatest_common_divisor         0x08003135   Thumb Code    66  zf_common_function.o(.text.func_get_greatest_common_divisor)
    func_int_to_str                          0x08003179   Thumb Code   242  zf_common_function.o(.text.func_int_to_str)
    gpio_get_level                           0x0800326d   Thumb Code    46  zf_driver_gpio.o(.text.gpio_get_level)
    gpio_init                                0x0800329d   Thumb Code   488  zf_driver_gpio.o(.text.gpio_init)
    gpio_set_level                           0x08003485   Thumb Code    98  zf_driver_gpio.o(.text.gpio_set_level)
    gps_uart_callback                        0x080034e9   Thumb Code   314  zf_device_gps_tau1201.o(.text.gps_uart_callback)
    interrupt_disable                        0x08003625   Thumb Code    20  zf_common_interrupt.o(.text.interrupt_disable)
    interrupt_enable                         0x08003639   Thumb Code    20  zf_common_interrupt.o(.text.interrupt_enable)
    interrupt_global_disable                 0x0800364d   Thumb Code    36  zf_common_interrupt.o(.text.interrupt_global_disable)
    interrupt_init                           0x08003671   Thumb Code    10  zf_common_interrupt.o(.text.interrupt_init)
    interrupt_set_priority                   0x0800367d   Thumb Code    28  zf_common_interrupt.o(.text.interrupt_set_priority)
    main                                     0x08003699   Thumb Code   354  main.o(.text.main)
    spi_init                                 0x080037fd   Thumb Code   870  zf_driver_spi.o(.text.spi_init)
    spi_write_16bit                          0x08003b65   Thumb Code   184  zf_driver_spi.o(.text.spi_write_16bit)
    spi_write_8bit                           0x08003c1d   Thumb Code   134  zf_driver_spi.o(.text.spi_write_8bit)
    system_delay                             0x08003ca5   Thumb Code   124  zf_driver_delay.o(.text.system_delay)
    tft180_clear                             0x08003d21   Thumb Code   122  zf_device_tft180.o(.text.tft180_clear)
    tft180_init                              0x08003e29   Thumb Code   992  zf_device_tft180.o(.text.tft180_init)
    tft180_set_color                         0x08004209   Thumb Code    42  zf_device_tft180.o(.text.tft180_set_color)
    tft180_set_dir                           0x08004235   Thumb Code    98  zf_device_tft180.o(.text.tft180_set_dir)
    tft180_show_char                         0x08004425   Thumb Code   666  zf_device_tft180.o(.text.tft180_show_char)
    tft180_show_int                          0x080046c1   Thumb Code   256  zf_device_tft180.o(.text.tft180_show_int)
    tft180_show_string                       0x080047c1   Thumb Code   220  zf_device_tft180.o(.text.tft180_show_string)
    timer_clear                              0x080048d5   Thumb Code   178  zf_driver_timer.o(.text.timer_clear)
    timer_clock_enable                       0x08004989   Thumb Code   182  zf_driver_timer.o(.text.timer_clock_enable)
    timer_funciton_check                     0x08004a41   Thumb Code   104  zf_driver_timer.o(.text.timer_funciton_check)
    timer_get                                0x08004aa9   Thumb Code   182  zf_driver_timer.o(.text.timer_get)
    tsl1401_collect_pit_handler              0x08004b61   Thumb Code   224  zf_device_tsl1401.o(.text.tsl1401_collect_pit_handler)
    uart_init                                0x08004c45   Thumb Code   652  zf_driver_uart.o(.text.uart_init)
    uart_query_byte                          0x08004ed1   Thumb Code   102  zf_driver_uart.o(.text.uart_query_byte)
    uart_rx_interrupt                        0x08004f39   Thumb Code   160  zf_driver_uart.o(.text.uart_rx_interrupt)
    uart_rx_interrupt_handler                0x08004fd9   Thumb Code    40  main.o(.text.uart_rx_interrupt_handler)
    uart_write_byte                          0x08005001   Thumb Code    64  zf_driver_uart.o(.text.uart_write_byte)
    uart_write_string                        0x08005041   Thumb Code    64  zf_driver_uart.o(.text.uart_write_string)
    __0sprintf                               0x08005081   Thumb Code    34  printfa.o(i.__0sprintf)
    __1sprintf                               0x08005081   Thumb Code     0  printfa.o(i.__0sprintf)
    __2sprintf                               0x08005081   Thumb Code     0  printfa.o(i.__0sprintf)
    __c89sprintf                             0x08005081   Thumb Code     0  printfa.o(i.__0sprintf)
    sprintf                                  0x08005081   Thumb Code     0  printfa.o(i.__0sprintf)
    __scatterload_copy                       0x080050a9   Thumb Code    14  handlers.o(i.__scatterload_copy)
    __scatterload_null                       0x080050b7   Thumb Code     2  handlers.o(i.__scatterload_null)
    __scatterload_zeroinit                   0x080050b9   Thumb Code    14  handlers.o(i.__scatterload_zeroinit)
    _is_digit                                0x0800524d   Thumb Code    14  scanf_fp.o(i._is_digit)
    __ctype_categories                       0x08005994   Data          64  ctype_c.o(.constdata)
    ascii_font_6x8                           0x08005a80   Data         552  zf_common_font.o(.rodata.ascii_font_6x8)
    ascii_font_8x16                          0x08005ca8   Data        1520  zf_common_font.o(.rodata.ascii_font_8x16)
    Region$$Table$$Base                      0x08006434   Number         0  anon$$obj.o(Region$$Table)
    Region$$Table$$Limit                     0x08006454   Number         0  anon$$obj.o(Region$$Table)
    camera_dma_handler                       0x2000000c   Data           4  zf_device_type.o(.data.camera_dma_handler)
    camera_uart_handler                      0x20000010   Data           4  zf_device_type.o(.data.camera_uart_handler)
    camera_vsync_handler                     0x20000014   Data           4  zf_device_type.o(.data.camera_vsync_handler)
    gpio_group                               0x2000001c   Data          32  zf_driver_gpio.o(.data.gpio_group)
    system_clock                             0x20000048   Data           4  zf_common_clock.o(.data.system_clock)
    wireless_module_uart_handler             0x2000007c   Data           4  zf_device_type.o(.data.wireless_module_uart_handler)
    fifo_data_count                          0x200000a4   Data           4  main.o(.bss.fifo_data_count)
    fifo_get_data                            0x200000a8   Data          64  main.o(.bss.fifo_get_data)
    get_data                                 0x200000e8   Data           1  main.o(.bss.get_data)
    gps_gga_state                            0x20000169   Data           1  zf_device_gps_tau1201.o(.bss.gps_gga_state)
    gps_rmc_state                            0x200001ea   Data           1  zf_device_gps_tau1201.o(.bss.gps_rmc_state)
    gps_tau1201_flag                         0x200001eb   Data           1  zf_device_gps_tau1201.o(.bss.gps_tau1201_flag)
    tsl1401_data                             0x20000220   Data         512  zf_device_tsl1401.o(.bss.tsl1401_data)
    tsl1401_finish_flag                      0x20000420   Data           1  zf_device_tsl1401.o(.bss.tsl1401_finish_flag)
    uart_data_fifo                           0x20000424   Data          24  main.o(.bss.uart_data_fifo)
    uart_get_data                            0x2000043c   Data          64  main.o(.bss.uart_get_data)
    Image$$ARM_LIB_STACK$$ZI$$Limit          0x20020000   Number         0  anon$$obj.o ABSOLUTE



==============================================================================

Memory Map of the image

  Image Entry point : 0x08000401

  Load Region LR_m_text (Base: 0x08000000, Size: 0x000064d8, Max: 0x00080000, ABSOLUTE)

    Execution Region VECTOR_ROM (Exec base: 0x08000000, Load base: 0x08000000, Size: 0x00000190, Max: 0x00000400, ABSOLUTE)

    Exec Addr    Load Addr    Size         Type   Attr      Idx    E Section Name        Object

    0x08000000   0x08000000   0x00000190   Data   RO         1531    RESET               startup_mm32f3277g.o


    Execution Region ER_m_text (Exec base: 0x08000400, Load base: 0x08000400, Size: 0x00006054, Max: 0x0007fc00, ABSOLUTE, FIXED)

    Exec Addr    Load Addr    Size         Type   Attr      Idx    E Section Name        Object

    0x08000400   0x08000400   0x00000000   Code   RO         2511  * .ARM.Collect$$$$00000000  mc_w.l(entry.o)
    0x08000400   0x08000400   0x00000004   Code   RO         2637    .ARM.Collect$$$$00000003  mc_w.l(entry4.o)
    0x08000404   0x08000404   0x00000004   Code   RO         2640    .ARM.Collect$$$$00000004  mc_w.l(entry5.o)
    0x08000408   0x08000408   0x00000000   Code   RO         2642    .ARM.Collect$$$$00000008  mc_w.l(entry7b.o)
    0x08000408   0x08000408   0x00000000   Code   RO         2644    .ARM.Collect$$$$0000000A  mc_w.l(entry8b.o)
    0x08000408   0x08000408   0x00000008   Code   RO         2645    .ARM.Collect$$$$0000000B  mc_w.l(entry9a.o)
    0x08000410   0x08000410   0x00000000   Code   RO         2647    .ARM.Collect$$$$0000000D  mc_w.l(entry10a.o)
    0x08000410   0x08000410   0x00000000   Code   RO         2649    .ARM.Collect$$$$0000000F  mc_w.l(entry11a.o)
    0x08000410   0x08000410   0x00000004   Code   RO         2638    .ARM.Collect$$$$00002714  mc_w.l(entry4.o)
    0x08000414   0x08000414   0x00000024   Code   RO         1532    .text               startup_mm32f3277g.o
    0x08000438   0x08000438   0x00000024   Code   RO         2514    .text               mc_w.l(memcpya.o)
    0x0800045c   0x0800045c   0x00000024   Code   RO         2516    .text               mc_w.l(memseta.o)
    0x08000480   0x08000480   0x00000024   Code   RO         2518    .text               mc_w.l(strstr.o)
    0x080004a4   0x080004a4   0x0000000e   Code   RO         2524    .text               mc_w.l(strlen.o)
    0x080004b2   0x080004b2   0x0000001e   Code   RO         2528    .text               mc_w.l(strncmp.o)
    0x080004d0   0x080004d0   0x00000038   Code   RO         2562    .text               mc_w.l(sscanf.o)
    0x08000508   0x08000508   0x0000014e   Code   RO         2570    .text               mf_w.l(dadd.o)
    0x08000656   0x08000656   0x000000e4   Code   RO         2572    .text               mf_w.l(dmul.o)
    0x0800073a   0x0800073a   0x000000de   Code   RO         2574    .text               mf_w.l(ddiv.o)
    0x08000818   0x08000818   0x0000000a   Code   RO         2588    .text               mf_w.l(ffltui.o)
    0x08000822   0x08000822   0x0000003e   Code   RO         2596    .text               mf_w.l(dfixi.o)
    0x08000860   0x08000860   0x00000026   Code   RO         2598    .text               mf_w.l(f2d.o)
    0x08000886   0x08000886   0x00000038   Code   RO         2600    .text               mf_w.l(d2f.o)
    0x080008be   0x080008be   0x0000002c   Code   RO         2661    .text               mc_w.l(uidiv.o)
    0x080008ea   0x080008ea   0x00000062   Code   RO         2663    .text               mc_w.l(uldiv.o)
    0x0800094c   0x0800094c   0x0000001e   Code   RO         2665    .text               mc_w.l(llshl.o)
    0x0800096a   0x0800096a   0x00000020   Code   RO         2667    .text               mc_w.l(llushr.o)
    0x0800098a   0x0800098a   0x00000024   Code   RO         2669    .text               mc_w.l(llsshr.o)
    0x080009ae   0x080009ae   0x00000156   Code   RO         2678    .text               mc_w.l(_scanf_longlong.o)
    0x08000b04   0x08000b04   0x0000014c   Code   RO         2680    .text               mc_w.l(_scanf_int.o)
    0x08000c50   0x08000c50   0x000000e0   Code   RO         2682    .text               mc_w.l(_scanf_str.o)
    0x08000d30   0x08000d30   0x00000360   Code   RO         2684    .text               mc_w.l(scanf_fp.o)
    0x08001090   0x08001090   0x00000028   Code   RO         2688    .text               mc_w.l(scanf_char.o)
    0x080010b8   0x080010b8   0x00000040   Code   RO         2690    .text               mc_w.l(_sgetc.o)
    0x080010f8   0x080010f8   0x00000000   Code   RO         2692    .text               mc_w.l(iusefp.o)
    0x080010f8   0x080010f8   0x0000006e   Code   RO         2693    .text               mf_w.l(fepilogue.o)
    0x08001166   0x08001166   0x000000ba   Code   RO         2695    .text               mf_w.l(depilogue.o)
    0x08001220   0x08001220   0x00000030   Code   RO         2701    .text               mf_w.l(dfixul.o)
    0x08001250   0x08001250   0x00000030   Code   RO         2705    .text               mf_w.l(cdrcmple.o)
    0x08001280   0x08001280   0x00000024   Code   RO         2707    .text               mc_w.l(init.o)
    0x080012a4   0x080012a4   0x0000000a   Code   RO         2709    .text               mc_w.l(isspace_c.o)
    0x080012ae   0x080012ae   0x0000001c   Code   RO         2711    .text               mc_w.l(_chval.o)
    0x080012ca   0x080012ca   0x00000002   PAD
    0x080012cc   0x080012cc   0x0000032c   Code   RO         2713    .text               mc_w.l(_scanf.o)
    0x080015f8   0x080015f8   0x00000018   Code   RO         2715    .text               mf_w.l(dfltul.o)
    0x08001610   0x08001610   0x00000028   Code   RO         2717    .text               mc_w.l(ctype_c.o)
    0x08001638   0x08001638   0x00000020   Code   RO           68    .text.DMA1_Channel1_IRQHandler  isr.o
    0x08001658   0x08001658   0x00000022   Code   RO           70    .text.DMA1_Channel2_IRQHandler  isr.o
    0x0800167a   0x0800167a   0x00000002   PAD
    0x0800167c   0x0800167c   0x00000022   Code   RO           72    .text.DMA1_Channel3_IRQHandler  isr.o
    0x0800169e   0x0800169e   0x00000002   PAD
    0x080016a0   0x080016a0   0x00000030   Code   RO           74    .text.DMA1_Channel4_IRQHandler  isr.o
    0x080016d0   0x080016d0   0x00000022   Code   RO           76    .text.DMA1_Channel5_IRQHandler  isr.o
    0x080016f2   0x080016f2   0x00000002   PAD
    0x080016f4   0x080016f4   0x00000022   Code   RO           78    .text.DMA1_Channel6_IRQHandler  isr.o
    0x08001716   0x08001716   0x00000002   PAD
    0x08001718   0x08001718   0x00000022   Code   RO           80    .text.DMA1_Channel7_IRQHandler  isr.o
    0x0800173a   0x0800173a   0x00000002   PAD
    0x0800173c   0x0800173c   0x00000024   Code   RO           82    .text.DMA2_Channel1_IRQHandler  isr.o
    0x08001760   0x08001760   0x00000026   Code   RO           84    .text.DMA2_Channel2_IRQHandler  isr.o
    0x08001786   0x08001786   0x00000002   PAD
    0x08001788   0x08001788   0x00000026   Code   RO           86    .text.DMA2_Channel3_IRQHandler  isr.o
    0x080017ae   0x080017ae   0x00000002   PAD
    0x080017b0   0x080017b0   0x00000026   Code   RO           88    .text.DMA2_Channel4_IRQHandler  isr.o
    0x080017d6   0x080017d6   0x00000002   PAD
    0x080017d8   0x080017d8   0x00000026   Code   RO           90    .text.DMA2_Channel5_IRQHandler  isr.o
    0x080017fe   0x080017fe   0x00000002   PAD
    0x08001800   0x08001800   0x00000012   Code   RO           54    .text.EXTI0_IRQHandler  isr.o
    0x08001812   0x08001812   0x00000002   PAD
    0x08001814   0x08001814   0x000000e4   Code   RO           66    .text.EXTI15_10_IRQHandler  isr.o
    0x080018f8   0x080018f8   0x00000012   Code   RO           56    .text.EXTI1_IRQHandler  isr.o
    0x0800190a   0x0800190a   0x00000002   PAD
    0x0800190c   0x0800190c   0x00000012   Code   RO           58    .text.EXTI2_IRQHandler  isr.o
    0x0800191e   0x0800191e   0x00000002   PAD
    0x08001920   0x08001920   0x00000012   Code   RO           60    .text.EXTI3_IRQHandler  isr.o
    0x08001932   0x08001932   0x00000002   PAD
    0x08001934   0x08001934   0x00000012   Code   RO           62    .text.EXTI4_IRQHandler  isr.o
    0x08001946   0x08001946   0x00000002   PAD
    0x08001948   0x08001948   0x000000c4   Code   RO           64    .text.EXTI9_5_IRQHandler  isr.o
    0x08001a0c   0x08001a0c   0x00000010   Code   RO         1524    .text.SystemInit    system_mm32f3277g.o
    0x08001a1c   0x08001a1c   0x00000012   Code   RO           22    .text.TIM1_UP_IRQHandler  isr.o
    0x08001a2e   0x08001a2e   0x00000002   PAD
    0x08001a30   0x08001a30   0x00000010   Code   RO           24    .text.TIM2_IRQHandler  isr.o
    0x08001a40   0x08001a40   0x00000012   Code   RO           26    .text.TIM3_IRQHandler  isr.o
    0x08001a52   0x08001a52   0x00000002   PAD
    0x08001a54   0x08001a54   0x00000012   Code   RO           28    .text.TIM4_IRQHandler  isr.o
    0x08001a66   0x08001a66   0x00000002   PAD
    0x08001a68   0x08001a68   0x00000012   Code   RO           30    .text.TIM5_IRQHandler  isr.o
    0x08001a7a   0x08001a7a   0x00000002   PAD
    0x08001a7c   0x08001a7c   0x00000012   Code   RO           32    .text.TIM6_IRQHandler  isr.o
    0x08001a8e   0x08001a8e   0x00000002   PAD
    0x08001a90   0x08001a90   0x00000012   Code   RO           34    .text.TIM7_IRQHandler  isr.o
    0x08001aa2   0x08001aa2   0x00000002   PAD
    0x08001aa4   0x08001aa4   0x00000018   Code   RO           36    .text.TIM8_UP_IRQHandler  isr.o
    0x08001abc   0x08001abc   0x0000004e   Code   RO           38    .text.UART1_IRQHandler  isr.o
    0x08001b0a   0x08001b0a   0x00000002   PAD
    0x08001b0c   0x08001b0c   0x00000048   Code   RO           40    .text.UART2_IRQHandler  isr.o
    0x08001b54   0x08001b54   0x0000004e   Code   RO           42    .text.UART3_IRQHandler  isr.o
    0x08001ba2   0x08001ba2   0x00000002   PAD
    0x08001ba4   0x08001ba4   0x00000048   Code   RO           44    .text.UART4_IRQHandler  isr.o
    0x08001bec   0x08001bec   0x00000048   Code   RO           46    .text.UART5_IRQHandler  isr.o
    0x08001c34   0x08001c34   0x00000056   Code   RO           48    .text.UART6_IRQHandler  isr.o
    0x08001c8a   0x08001c8a   0x00000002   PAD
    0x08001c8c   0x08001c8c   0x00000048   Code   RO           50    .text.UART7_IRQHandler  isr.o
    0x08001cd4   0x08001cd4   0x00000056   Code   RO           52    .text.UART8_IRQHandler  isr.o
    0x08001d2a   0x08001d2a   0x00000002   PAD
    0x08001d2c   0x08001d2c   0x00000038   Code   RO          239    .text.__NVIC_DisableIRQ  zf_common_interrupt.o
    0x08001d64   0x08001d64   0x00000030   Code   RO          235    .text.__NVIC_EnableIRQ  zf_common_interrupt.o
    0x08001d94   0x08001d94   0x00000042   Code   RO          243    .text.__NVIC_SetPriority  zf_common_interrupt.o
    0x08001dd6   0x08001dd6   0x00000002   PAD
    0x08001dd8   0x08001dd8   0x0000003c   Code   RO          247    .text.__NVIC_SetPriorityGrouping  zf_common_interrupt.o
    0x08001e14   0x08001e14   0x00000096   Code   RO          257    .text.adc_convert   zf_driver_adc.o
    0x08001eaa   0x08001eaa   0x00000002   PAD
    0x08001eac   0x08001eac   0x00000180   Code   RO          368    .text.afio_init     zf_driver_gpio.o
    0x0800202c   0x0800202c   0x00000024   Code   RO           99    .text.clock_init    zf_common_clock.o
    0x08002050   0x08002050   0x00000098   Code   RO          101    .text.clock_reset   zf_common_clock.o
    0x080020e8   0x080020e8   0x00000260   Code   RO          103    .text.clock_set_freq  zf_common_clock.o
    0x08002348   0x08002348   0x0000006c   Code   RO          121    .text.debug_assert_handler  zf_common_debug.o
    0x080023b4   0x080023b4   0x00000040   Code   RO          127    .text.debug_delay   zf_common_debug.o
    0x080023f4   0x080023f4   0x000003ae   Code   RO          125    .text.debug_output  zf_common_debug.o
    0x080027a2   0x080027a2   0x00000002   PAD
    0x080027a4   0x080027a4   0x0000004c   Code   RO          133    .text.debug_output_init  zf_common_debug.o
    0x080027f0   0x080027f0   0x00000030   Code   RO          131    .text.debug_output_struct_init  zf_common_debug.o
    0x08002820   0x08002820   0x000000f0   Code   RO          123    .text.debug_protective_handler  zf_common_debug.o
    0x08002910   0x08002910   0x0000003a   Code   RO          806    .text.dm1xa_light_callback  zf_device_dm1xa.o
    0x0800294a   0x0800294a   0x00000002   PAD
    0x0800294c   0x0800294c   0x00000100   Code   RO          804    .text.dm1xa_sound_callback  zf_device_dm1xa.o
    0x08002a4c   0x08002a4c   0x0000015a   Code   RO          301    .text.encoder_quad_init  zf_driver_encoder.o
    0x08002ba6   0x08002ba6   0x00000002   PAD
    0x08002ba8   0x08002ba8   0x000000a8   Code   RO          152    .text.fifo_clear    zf_common_fifo.o
    0x08002c50   0x08002c50   0x0000002e   Code   RO          164    .text.fifo_end_offset  zf_common_fifo.o
    0x08002c7e   0x08002c7e   0x00000002   PAD
    0x08002c80   0x08002c80   0x0000002e   Code   RO          158    .text.fifo_head_offset  zf_common_fifo.o
    0x08002cae   0x08002cae   0x00000002   PAD
    0x08002cb0   0x08002cb0   0x0000006e   Code   RO          170    .text.fifo_init     zf_common_fifo.o
    0x08002d1e   0x08002d1e   0x00000002   PAD
    0x08002d20   0x08002d20   0x000001ee   Code   RO          166    .text.fifo_read_buffer  zf_common_fifo.o
    0x08002f0e   0x08002f0e   0x00000002   PAD
    0x08002f10   0x08002f10   0x00000028   Code   RO          154    .text.fifo_used     zf_common_fifo.o
    0x08002f38   0x08002f38   0x000001fa   Code   RO          160    .text.fifo_write_buffer  zf_common_fifo.o
    0x08003132   0x08003132   0x00000002   PAD
    0x08003134   0x08003134   0x00000042   Code   RO          190    .text.func_get_greatest_common_divisor  zf_common_function.o
    0x08003176   0x08003176   0x00000002   PAD
    0x08003178   0x08003178   0x000000f2   Code   RO          196    .text.func_int_to_str  zf_common_function.o
    0x0800326a   0x0800326a   0x00000002   PAD
    0x0800326c   0x0800326c   0x0000002e   Code   RO          360    .text.gpio_get_level  zf_driver_gpio.o
    0x0800329a   0x0800329a   0x00000002   PAD
    0x0800329c   0x0800329c   0x000001e8   Code   RO          366    .text.gpio_init     zf_driver_gpio.o
    0x08003484   0x08003484   0x00000062   Code   RO          358    .text.gpio_set_level  zf_driver_gpio.o
    0x080034e6   0x080034e6   0x00000002   PAD
    0x080034e8   0x080034e8   0x0000013a   Code   RO          835    .text.gps_uart_callback  zf_device_gps_tau1201.o
    0x08003622   0x08003622   0x00000002   PAD
    0x08003624   0x08003624   0x00000014   Code   RO          237    .text.interrupt_disable  zf_common_interrupt.o
    0x08003638   0x08003638   0x00000014   Code   RO          233    .text.interrupt_enable  zf_common_interrupt.o
    0x0800364c   0x0800364c   0x00000024   Code   RO          231    .text.interrupt_global_disable  zf_common_interrupt.o
    0x08003670   0x08003670   0x0000000a   Code   RO          245    .text.interrupt_init  zf_common_interrupt.o
    0x0800367a   0x0800367a   0x00000002   PAD
    0x0800367c   0x0800367c   0x0000001c   Code   RO          241    .text.interrupt_set_priority  zf_common_interrupt.o
    0x08003698   0x08003698   0x00000162   Code   RO            4    .text.main          main.o
    0x080037fa   0x080037fa   0x00000002   PAD
    0x080037fc   0x080037fc   0x00000366   Code   RO          632    .text.spi_init      zf_driver_spi.o
    0x08003b62   0x08003b62   0x00000002   PAD
    0x08003b64   0x08003b64   0x000000b8   Code   RO          600    .text.spi_write_16bit  zf_driver_spi.o
    0x08003c1c   0x08003c1c   0x00000086   Code   RO          596    .text.spi_write_8bit  zf_driver_spi.o
    0x08003ca2   0x08003ca2   0x00000002   PAD
    0x08003ca4   0x08003ca4   0x0000007c   Code   RO          273    .text.system_delay  zf_driver_delay.o
    0x08003d20   0x08003d20   0x0000007a   Code   RO         1322    .text.tft180_clear  zf_device_tft180.o
    0x08003d9a   0x08003d9a   0x00000002   PAD
    0x08003d9c   0x08003d9c   0x0000008a   Code   RO         1362    .text.tft180_debug_init  zf_device_tft180.o
    0x08003e26   0x08003e26   0x00000002   PAD
    0x08003e28   0x08003e28   0x000003e0   Code   RO         1358    .text.tft180_init   zf_device_tft180.o
    0x08004208   0x08004208   0x0000002a   Code   RO         1332    .text.tft180_set_color  zf_device_tft180.o
    0x08004232   0x08004232   0x00000002   PAD
    0x08004234   0x08004234   0x00000062   Code   RO         1328    .text.tft180_set_dir  zf_device_tft180.o
    0x08004296   0x08004296   0x00000002   PAD
    0x08004298   0x08004298   0x0000018a   Code   RO         1324    .text.tft180_set_region  zf_device_tft180.o
    0x08004422   0x08004422   0x00000002   PAD
    0x08004424   0x08004424   0x0000029a   Code   RO         1338    .text.tft180_show_char  zf_device_tft180.o
    0x080046be   0x080046be   0x00000002   PAD
    0x080046c0   0x080046c0   0x00000100   Code   RO         1342    .text.tft180_show_int  zf_device_tft180.o
    0x080047c0   0x080047c0   0x000000dc   Code   RO         1340    .text.tft180_show_string  zf_device_tft180.o
    0x0800489c   0x0800489c   0x00000036   Code   RO         1360    .text.tft180_write_index  zf_device_tft180.o
    0x080048d2   0x080048d2   0x00000002   PAD
    0x080048d4   0x080048d4   0x000000b2   Code   RO          653    .text.timer_clear   zf_driver_timer.o
    0x08004986   0x08004986   0x00000002   PAD
    0x08004988   0x08004988   0x000000b6   Code   RO          645    .text.timer_clock_enable  zf_driver_timer.o
    0x08004a3e   0x08004a3e   0x00000002   PAD
    0x08004a40   0x08004a40   0x00000068   Code   RO          643    .text.timer_funciton_check  zf_driver_timer.o
    0x08004aa8   0x08004aa8   0x000000b6   Code   RO          651    .text.timer_get     zf_driver_timer.o
    0x08004b5e   0x08004b5e   0x00000002   PAD
    0x08004b60   0x08004b60   0x000000e0   Code   RO         1378    .text.tsl1401_collect_pit_handler  zf_device_tsl1401.o
    0x08004c40   0x08004c40   0x00000002   Code   RO         1394    .text.type_default_callback  zf_device_type.o
    0x08004c42   0x08004c42   0x00000002   PAD
    0x08004c44   0x08004c44   0x0000028c   Code   RO          683    .text.uart_init     zf_driver_uart.o
    0x08004ed0   0x08004ed0   0x00000066   Code   RO          677    .text.uart_query_byte  zf_driver_uart.o
    0x08004f36   0x08004f36   0x00000002   PAD
    0x08004f38   0x08004f38   0x000000a0   Code   RO          681    .text.uart_rx_interrupt  zf_driver_uart.o
    0x08004fd8   0x08004fd8   0x00000028   Code   RO            6    .text.uart_rx_interrupt_handler  main.o
    0x08005000   0x08005000   0x00000040   Code   RO          669    .text.uart_write_byte  zf_driver_uart.o
    0x08005040   0x08005040   0x00000040   Code   RO          673    .text.uart_write_string  zf_driver_uart.o
    0x08005080   0x08005080   0x00000028   Code   RO         2537    i.__0sprintf        mc_w.l(printfa.o)
    0x080050a8   0x080050a8   0x0000000e   Code   RO         2722    i.__scatterload_copy  mc_w.l(handlers.o)
    0x080050b6   0x080050b6   0x00000002   Code   RO         2723    i.__scatterload_null  mc_w.l(handlers.o)
    0x080050b8   0x080050b8   0x0000000e   Code   RO         2724    i.__scatterload_zeroinit  mc_w.l(handlers.o)
    0x080050c6   0x080050c6   0x00000002   PAD
    0x080050c8   0x080050c8   0x00000184   Code   RO         2542    i._fp_digits        mc_w.l(printfa.o)
    0x0800524c   0x0800524c   0x0000000e   Code   RO         2686    i._is_digit         mc_w.l(scanf_fp.o)
    0x0800525a   0x0800525a   0x00000002   PAD
    0x0800525c   0x0800525c   0x000006dc   Code   RO         2543    i._printf_core      mc_w.l(printfa.o)
    0x08005938   0x08005938   0x00000024   Code   RO         2544    i._printf_post_padding  mc_w.l(printfa.o)
    0x0800595c   0x0800595c   0x0000002e   Code   RO         2545    i._printf_pre_padding  mc_w.l(printfa.o)
    0x0800598a   0x0800598a   0x0000000a   Code   RO         2547    i._sputc            mc_w.l(printfa.o)
    0x08005994   0x08005994   0x00000040   Data   RO         2718    .constdata          mc_w.l(ctype_c.o)
    0x080059d4   0x080059d4   0x000000ac   Data   RO          144    .rodata..L__const.debug_protective_handler.pin_list  zf_common_debug.o
    0x08005a80   0x08005a80   0x00000228   Data   RO          181    .rodata.ascii_font_6x8  zf_common_font.o
    0x08005ca8   0x08005ca8   0x000005f0   Data   RO          180    .rodata.ascii_font_8x16  zf_common_font.o
    0x08006298   0x08006298   0x0000002d   Data   RO           12    .rodata.str1.1      main.o
    0x080062c5   0x080062c5   0x0000005a   Data   RO          141    .rodata.str1.1      zf_common_debug.o
    0x0800631f   0x0800631f   0x0000002b   Data   RO          172    .rodata.str1.1      zf_common_fifo.o
    0x0800634a   0x0800634a   0x0000002f   Data   RO          220    .rodata.str1.1      zf_common_function.o
    0x08006379   0x08006379   0x0000002e   Data   RO          306    .rodata.str1.1      zf_driver_encoder.o
    0x080063a7   0x080063a7   0x0000002a   Data   RO          635    .rodata.str1.1      zf_driver_spi.o
    0x080063d1   0x080063d1   0x0000002b   Data   RO          686    .rodata.str1.1      zf_driver_uart.o
    0x080063fc   0x080063fc   0x00000008   Data   RO          858    .rodata.str1.1      zf_device_gps_tau1201.o
    0x08006404   0x08006404   0x0000002d   Data   RO         1370    .rodata.str1.1      zf_device_tft180.o
    0x08006431   0x08006431   0x00000003   PAD
    0x08006434   0x08006434   0x00000020   Data   RO         2721    Region$$Table       anon$$obj.o


    Execution Region RW_m_data (Exec base: 0x20000000, Load base: 0x08006454, Size: 0x00000488, Max: 0x0001dc00, ABSOLUTE)

    Exec Addr    Load Addr    Size         Type   Attr      Idx    E Section Name        Object

    0x20000000   0x08006454   0x0000000c   Data   RW          263    .data.adc_index     zf_driver_adc.o
    0x2000000c   0x08006460   0x00000004   Data   RW         1403    .data.camera_dma_handler  zf_device_type.o
    0x20000010   0x08006464   0x00000004   Data   RW         1401    .data.camera_uart_handler  zf_device_type.o
    0x20000014   0x08006468   0x00000004   Data   RW         1402    .data.camera_vsync_handler  zf_device_type.o
    0x20000018   0x0800646c   0x00000002   Data   RW          817    .data.dm1xa_distance_mm  zf_device_dm1xa.o
    0x2000001a   0x0800646e   0x00000002   PAD
    0x2000001c   0x08006470   0x00000020   Data   RW          370    .data.gpio_group    zf_driver_gpio.o
    0x2000003c   0x08006490   0x0000000c   Data   RW          634    .data.spi_index     zf_driver_spi.o
    0x20000048   0x0800649c   0x00000004   Data   RW          105    .data.system_clock  zf_common_clock.o
    0x2000004c   0x080064a0   0x00000001   Data   RW         1368    .data.tft180_display_font  zf_device_tft180.o
    0x2000004d   0x080064a1   0x00000001   PAD
    0x2000004e   0x080064a2   0x00000002   Data   RW         1369    .data.tft180_pencolor  zf_device_tft180.o
    0x20000050   0x080064a4   0x00000001   Data   RW         1364    .data.tft180_x_max  zf_device_tft180.o
    0x20000051   0x080064a5   0x00000001   Data   RW         1365    .data.tft180_y_max  zf_device_tft180.o
    0x20000052   0x080064a6   0x00000002   PAD
    0x20000054   0x080064a8   0x00000020   Data   RW          685    .data.uart_index    zf_driver_uart.o
    0x20000074   0x080064c8   0x00000008   Data   RW          688    .data.uart_irq      zf_driver_uart.o
    0x2000007c   0x080064d0   0x00000004   Data   RW         1405    .data.wireless_module_uart_handler  zf_device_type.o
    0x20000080   0x080064d4   0x00000001   Data   RW          139    .data.zf_debug_assert_enable  zf_common_debug.o
    0x20000081   0x080064d5   0x00000003   PAD
    0x20000084        -       0x00000003   Zero   RW          264    .bss.adc_resolution  zf_driver_adc.o
    0x20000087        -       0x00000001   Zero   RW          140    .bss.debug_assert_handler.assert_nest_index  zf_common_debug.o
    0x20000088        -       0x00000014   Zero   RW          143    .bss.debug_output_info  zf_common_debug.o
    0x2000009c        -       0x00000004   Zero   RW          815    .bss.dm1xa_plus_count  zf_device_dm1xa.o
    0x200000a0        -       0x00000001   Zero   RW          816    .bss.dm1xa_ranging_state  zf_device_dm1xa.o
    0x200000a1        -       0x00000001   Zero   RW          814    .bss.dm1xa_type     zf_device_dm1xa.o
    0x200000a2   0x080064d5   0x00000002   PAD
    0x200000a4        -       0x00000004   Zero   RW            9    .bss.fifo_data_count  main.o
    0x200000a8        -       0x00000040   Zero   RW           13    .bss.fifo_get_data  main.o
    0x200000e8        -       0x00000001   Zero   RW            8    .bss.get_data       main.o
    0x200000e9        -       0x00000080   Zero   RW          855    .bss.gps_gga_buffer  zf_device_gps_tau1201.o
    0x20000169        -       0x00000001   Zero   RW          850    .bss.gps_gga_state  zf_device_gps_tau1201.o
    0x2000016a        -       0x00000080   Zero   RW          853    .bss.gps_rmc_buffer  zf_device_gps_tau1201.o
    0x200001ea        -       0x00000001   Zero   RW          851    .bss.gps_rmc_state  zf_device_gps_tau1201.o
    0x200001eb        -       0x00000001   Zero   RW          849    .bss.gps_tau1201_flag  zf_device_gps_tau1201.o
    0x200001ec        -       0x00000018   Zero   RW          857    .bss.gps_tau1201_receiver_fifo  zf_device_gps_tau1201.o
    0x20000204        -       0x00000001   Zero   RW          856    .bss.gps_tau1201_state  zf_device_gps_tau1201.o
    0x20000205   0x080064d5   0x00000003   PAD
    0x20000208        -       0x00000004   Zero   RW          249    .bss.interrupt_nest_count  zf_common_interrupt.o
    0x2000020c        -       0x00000002   Zero   RW         1366    .bss.tft180_bgcolor  zf_device_tft180.o
    0x2000020e        -       0x00000001   Zero   RW         1367    .bss.tft180_display_dir  zf_device_tft180.o
    0x2000020f        -       0x00000008   Zero   RW          659    .bss.timer_function_state  zf_driver_timer.o
    0x20000217        -       0x00000008   Zero   RW          660    .bss.timer_mode_state  zf_driver_timer.o
    0x2000021f   0x080064d5   0x00000001   PAD
    0x20000220        -       0x00000200   Zero   RW         1385    .bss.tsl1401_data   zf_device_tsl1401.o
    0x20000420        -       0x00000001   Zero   RW         1386    .bss.tsl1401_finish_flag  zf_device_tsl1401.o
    0x20000421        -       0x00000001   Zero   RW         1384    .bss.tsl1401_init_state  zf_device_tsl1401.o
    0x20000422   0x080064d5   0x00000002   PAD
    0x20000424        -       0x00000018   Zero   RW           10    .bss.uart_data_fifo  main.o
    0x2000043c        -       0x00000040   Zero   RW           11    .bss.uart_get_data  main.o
    0x2000047c        -       0x00000008   Zero   RW          687    .bss.uart_interrupt_state  zf_driver_uart.o
    0x20000484        -       0x00000001   Zero   RW          142    .bss.zf_debug_init_flag  zf_common_debug.o


    Execution Region ARM_LIB_HEAP (Exec base: 0x20000488, Load base: 0x080064d8, Size: 0x00000400, Max: 0x00000400, ABSOLUTE)

    Exec Addr    Load Addr    Size         Type   Attr      Idx    E Section Name        Object

    0x20000488        -       0x00000400   Zero   RW            1    ARM_LIB_HEAP.bss    anon$$obj.o


    Execution Region ARM_LIB_STACK (Exec base: 0x2001e000, Load base: 0x080064d8, Size: 0x00002000, Max: 0x00002000, ABSOLUTE)

    Exec Addr    Load Addr    Size         Type   Attr      Idx    E Section Name        Object

    0x2001e000        -       0x00002000   Zero   RW            2    ARM_LIB_STACK.bss   anon$$obj.o


==============================================================================

Image component sizes


      Code (inc. data)   RO Data    RW Data    ZI Data      Debug   Object Name

      1716          0          0          0          0       6459   isr.o
       394          0         45          0        157       4812   main.o
        36          8        400          0          0        844   startup_mm32f3277g.o
        16          0          0          0          0        414   system_mm32f3277g.o
       796          0          0          4          0       2897   zf_common_clock.o
      1478          0        262          1         22       8239   zf_common_debug.o
      1410          0         43          0          0       5321   zf_common_fifo.o
         0          0       2072          0          0        731   zf_common_font.o
       308          0         47          0          0       7554   zf_common_function.o
       344          0          0          0          4       4629   zf_common_interrupt.o
       314          4          0          2          6       3854   zf_device_dm1xa.o
       314          0          8          0        284       8111   zf_device_gps_tau1201.o
      2982          4         45          5          3      11682   zf_device_tft180.o
       224          0          0          0        514       4148   zf_device_tsl1401.o
         2          0          0         16          0       1517   zf_device_type.o
       150          0          0         12          3       5325   zf_driver_adc.o
       124          0          0          0          0        946   zf_driver_delay.o
       346          8         46          0          0       6226   zf_driver_encoder.o
      1016          0          0         32          0       5141   zf_driver_gpio.o
      1188          4         42         12          0       9308   zf_driver_spi.o
       646         24          0          0         16       7707   zf_driver_timer.o
      1042          8         43         40          8       7764   zf_driver_uart.o

    ----------------------------------------------------------------------
     14956         60       3088        132      10244     113629   Object Totals
         0          0         32          0       9216          0   (incl. Generated)
       110          0          3          8         11          0   (incl. Padding)

    ----------------------------------------------------------------------

      Code (inc. data)   RO Data    RW Data    ZI Data      Debug   Library Member Name

        28          0          0          0          0         68   _chval.o
       812          4          0          0          0        112   _scanf.o
       332          0          0          0          0         96   _scanf_int.o
       342          0          0          0          0        100   _scanf_longlong.o
       224          0          0          0          0         96   _scanf_str.o
        64          0          0          0          0         84   _sgetc.o
        40          6         64          0          0         68   ctype_c.o
         0          0          0          0          0          0   entry.o
         0          0          0          0          0          0   entry10a.o
         0          0          0          0          0          0   entry11a.o
         8          4          0          0          0          0   entry4.o
         4          0          0          0          0          0   entry5.o
         0          0          0          0          0          0   entry7b.o
         0          0          0          0          0          0   entry8b.o
         8          4          0          0          0          0   entry9a.o
        30          0          0          0          0          0   handlers.o
        36          8          0          0          0         68   init.o
        10          0          0          0          0         68   isspace_c.o
         0          0          0          0          0          0   iusefp.o
        30          0          0          0          0         68   llshl.o
        36          0          0          0          0         68   llsshr.o
        32          0          0          0          0         68   llushr.o
        36          0          0          0          0         68   memcpya.o
        36          0          0          0          0        108   memseta.o
      2276         86          0          0          0        520   printfa.o
        40          8          0          0          0         84   scanf_char.o
       878         12          0          0          0        216   scanf_fp.o
        56          8          0          0          0         84   sscanf.o
        14          0          0          0          0         68   strlen.o
        30          0          0          0          0         80   strncmp.o
        36          0          0          0          0         80   strstr.o
        44          0          0          0          0         80   uidiv.o
        98          0          0          0          0         92   uldiv.o
        48          0          0          0          0         68   cdrcmple.o
        56          0          0          0          0         88   d2f.o
       334          0          0          0          0        148   dadd.o
       222          0          0          0          0        100   ddiv.o
       186          0          0          0          0        176   depilogue.o
        62          0          0          0          0         80   dfixi.o
        48          0          0          0          0         68   dfixul.o
        24          0          0          0          0         76   dfltul.o
       228          0          0          0          0         96   dmul.o
        38          0          0          0          0         68   f2d.o
       110          0          0          0          0        168   fepilogue.o
        10          0          0          0          0         68   ffltui.o

    ----------------------------------------------------------------------
      6952        140         64          0          0       3648   Library Totals
         6          0          0          0          0          0   (incl. Padding)

    ----------------------------------------------------------------------

      Code (inc. data)   RO Data    RW Data    ZI Data      Debug   Library Name

      5580        140         64          0          0       2444   mc_w.l
      1366          0          0          0          0       1204   mf_w.l

    ----------------------------------------------------------------------
      6952        140         64          0          0       3648   Library Totals

    ----------------------------------------------------------------------

==============================================================================


      Code (inc. data)   RO Data    RW Data    ZI Data      Debug   

     21908        200       3152        132      10244     115073   Grand Totals
     21908        200       3152        132      10244     115073   ELF Image Totals
     21908        200       3152        132          0          0   ROM Totals

==============================================================================

    Total RO  Size (Code + RO Data)                25060 (  24.47kB)
    Total RW  Size (RW Data + ZI Data)             10376 (  10.13kB)
    Total ROM Size (Code + RO Data + RW Data)      25192 (  24.60kB)

==============================================================================

